:100000000C9462000C948A000C948A000C948A0070
:100010000C948A000C948A000C948A000C948A0038
:100020000C948A000C948A000C948A000C948A0028
:100030000C948A000C948A000C948A000C948A0018
:100040000C94090A0C948A000C94790A0C94530AB3
:100050000C948A000C948A000C948A000C948A00F8
:100060000C94AB0A0C948A000000000024002700C6
:100070002A0000000000250028002B0000000008D6
:10008000000201000003040700000000000000005F
:1000900000000000230026002900040404040404D6
:1000A0000404020202020202030303030303010227
:1000B00004081020408001020408102001020408F6
:1000C0001020CA0B11241FBECFEFD8E0DEBFCDBF7A
:1000D00023E0A0EDB1E001C01D92A836B207E1F720
:1000E00011E0A0E0B1E0E8E4F8E202C005900D9272
:1000F000A03DB107D9F710E0C2E6D0E004C02197D7
:10010000FE010E941012C136D107C9F70E94310CBE
:100110000C9422140C940000CF92DF92EF92FF9285
:10012000CF93DF93B0914C03A0E08111AB2F80916E
:100130004D0390E0880F991FAC0140575F4FC0906E
:100140005203D0905303E0905403F090550330E0F5
:1001500020E0FA01C591D491E881B90190E080E0F6
:10016000EB23EA130AC02F5F3F4F6C157D058E0508
:100170009F0578F36FEF7FEFCB01DF91CF91FF9079
:10018000EF90DF90CF90089590E0FC01E458FF4F8E
:100190002491FC01E255FF4F3491FC01E656FF4FDC
:1001A000E491EE23C9F0222339F0233001F1A8F4C1
:1001B000213019F1223029F1F0E0EE0FFF1FEE5847
:1001C000FF4FA591B4918FB7F894EC91611126C0BF
:1001D00030953E233C938FBF08952730A9F02830F7
:1001E000C9F0243049F7809180008F7D03C0809151
:1001F00080008F7780938000DFCF84B58F7784BDB8
:10020000DBCF84B58F7DFBCF8091B0008F7780935B
:10021000B000D2CF8091B0008F7DF9CF3E2BDACFE6
:10022000CF93DF9390E0FC01E255FF4F2491865677
:100230009F4FFC0184918823D1F090E0880F991F93
:10024000FC01E859FF4FA591B491FC01EE58FF4F16
:10025000C591D491623071F49FB7F8943C91822F8C
:10026000809583238C93E8812E2B28839FBFDF9179
:10027000CF9108958FB7F894EC912E2B2C938FBFCC
:10028000F6CF3FB7F8948091980290919902A0918F
:100290009A02B0919B0226B5A89B05C02F3F19F08A
:1002A0000196A11DB11D3FBFBA2FA92F982F8827F6
:1002B000BC01CD01620F711D811D911D42E0660FD1
:1002C000771F881F991F4A95D1F708958F929F92A3
:1002D000AF92BF92CF92DF92EF92FF924B015C01FF
:1002E0000E9441016B017C010E9441016C197D0952
:1002F0008E099F09683E734081059105A8F321E0AE
:10030000821A9108A108B10888EEC80E83E0D81EB1
:10031000E11CF11C81149104A104B10429F7FF90A0
:10032000EF90DF90CF90BF90AF909F908F90089507
:100330002FB7F89460919402709195028091960283
:10034000909197022FBF0895CF92DF92EF92FF9284
:100350000F931F93CF93DF93CDB7DEB7C054D14037
:100360000FB6F894DEBF0FBECDBF0E94980100917A
:100370004E0310914F0320915003309151036B01B4
:100380007C01C01AD10AE20AF30A97018601003DF6
:1003900017402105310590F480915603C05CDE4F73
:1003A0000FB6F894DEBF0FBECDBFDF91CF911F9186
:1003B0000F91FF90EF90DF90CF90089560934E03E0
:1003C00070934F038093500390935103109249030D
:1003D000109248031092470310924603109245036F
:1003E00062E080914A030E94100161E070E080E0C9
:1003F00090E00E94660161E080914A030E94100132
:1004000060E080914A030E94C40080914B038551B3
:10041000823020F58BE291E10197F1F762E0809163
:100420004A030E9410018091570390E082309105A9
:1004300038F0880F991F880F991F05970197F1F7DA
:10044000F89480E00E948C006F3F7F4F8F4F9F4F4A
:1004500061F410925603789480E0A0CF64E170E0DC
:1004600080E090E00E946601D9CF81E00E948C007C
:100470006F3F7F4F8F4F9F4F61F38E010F5F1F4F75
:100480006E012FEBC21A2EEFD20A780180E00E9493
:100490008C00F701608371838283938381E00E94E3
:1004A0008C00F7016483758386839783F8E0EF0EF1
:1004B000F11CEC14FD0451F7789430E020E0F801D1
:1004C000C080D180E280F38044815581668177814C
:1004D000FFEFCF16DF06EF06FF0631F04F3F8FEF3D
:1004E00058076807780719F410925603B5CFF90139
:1004F00083E0F595E7958A95E1F7EB5BFC4F80810A
:10050000880FC416D506E606F70610F180832F5F24
:100510003F4F085F1F4F2832310589F6409149034C
:100520002091450380914603280F3327331F809184
:100530004703280F311D80914803820F932F911D8F
:1005400099274817190681F681E08093560326CF34
:100550008160DCCFCF92DF92EF92FF92CF930E9427
:10056000A401882341F080914B038C3009F44FC0E3
:1005700038F48B30F1F060E070E080EC9FE741C030
:1005800085518230C0F7C09147036C2F70E0762F01
:10059000662766277F7780914803682B90E080E08C
:1005A0000E94800F2DEC3CEC4CEC5DE30E94E10FCF
:1005B0004AC06091470370E090E080E00E94800FA5
:1005C0006B017C01C0914803C7FF0AC0AC019B01CD
:1005D00060E070E080E89FEB0E94D6106B017C0128
:1005E000CF706C2F70E090E080E00E94820F2DECC5
:1005F0003CEC4CEC5DE30E94E10FA70196010E94E8
:10060000D710CF91FF90EF90DF90CF900895C091D9
:1006100047036C2F70E090E080E00E94800F6B0138
:100620007C01609148036F7070E090E080E00E9470
:10063000820F2DEC3CEC4CEC5DE30E94E10FA70136
:1006400096010E94D710C7FFDCCF9058DACF0895EB
:100650000895AF92BF92CF92DF92EF92FF920F93E5
:100660001F93CF93DF936C017B018B01040F151F48
:10067000EB015E01AE18BF08C017D10759F06991B0
:10068000D601ED91FC910190F081E02DC601099514
:10069000892B79F7C501DF91CF911F910F91FF90C1
:1006A000EF90DF90CF90BF90AF900895FC01538DF5
:1006B000448D252F30E0842F90E0821B930B54173C
:1006C00010F0CF96089501970895FC01918D828DC9
:1006D000981761F0A28DAE0FBF2FB11D5D968C9162
:1006E000928D9F5F9F73928F90E008958FEF9FEFA1
:1006F00008950F931F930E9498016093A402709332
:10070000A5028093A6029093A7028CE992E00E9432
:10071000650397FF1DC00E9498010091A4021091EB
:10072000A5022091A6023091A702601B710B820BDB
:10073000930B0091A0021091A1022091A20230918E
:10074000A3026017710782079307F8F28FEF9FEFFC
:100750001F910F910895FC01918D828D981731F0B2
:10076000828DE80FF11D858D90E008958FEF9FEF4A
:100770000895FC01918D228D892F90E0805C9F4F20
:10078000821B91098F73992708958CE992E00E944A
:10079000B90321E0892B09F420E0822F089580E03D
:1007A00090E0892B29F00E94C50381110C94000070
:1007B0000895FC01A48DA80FB92FB11DA35ABF4FF6
:1007C0002C91848D90E001968F739927848FA68950
:1007D000B7892C93A089B1898C91837080648C93A4
:1007E000938D848D981306C00288F389E02D808153
:1007F0008F7D80830895EF92FF920F931F93CF9385
:10080000DF93EC0181E0888F9B8D8C8D98131AC04B
:10081000E889F989808185FF15C09FB7F894EE8932
:10082000FF896083E889F98980818370806480838F
:100830009FBF81E090E0DF91CF911F910F91FF90DA
:10084000EF900895F62E0B8D10E00F5F1F4F0F7382
:100850001127E02E8C8D8E110CC00FB607FCFACF3D
:10086000E889F989808185FFF5CFCE010E94D903FF
:10087000F1CFEB8DEC0FFD2FF11DE35AFF4FF0820E
:100880009FB7F8940B8FEA89FB8980818062CFCF74
:10089000CF93DF93EC01888D8823B9F0AA89BB89B7
:1008A000E889F9898C9185FD03C0808186FD0DC0A2
:1008B0000FB607FCF7CF8C9185FFF2CF808185FFC3
:1008C000EDCFCE010E94D903E9CFDF91CF910895FA
:1008D000089520911402260F3327331F213231054A
:1008E000ECF420915D02FC0190E080E0243069F09E
:1008F00082E00895A09114022191AC014C505E4F0A
:10090000A40FB52FB11D2C930196861798F38091F3
:100910001402680F6093140280E0089581E0089546
:1009200010925D0281E080935C021092370261E0D8
:1009300082E10E94C40061E083E10E94C400E9EB0F
:10094000F0E080818E7F808380818D7F808388E44A
:100950008093B80085E48093BC000895CF93DF9323
:1009600091E09093F3018823B9F0C091B800D09141
:10097000BA008091BC008A7B8093BC0060E082E179
:100980000E94C40060E083E10E94C4000E949004C1
:10099000D093BA00C093B800DF91CF910895089525
:1009A000E0918C0280918B02E81730F4F0E0ED5278
:1009B000FE4F808190E008958FEF9FEF0895909112
:1009C0008C0280918B022FEF3FEF981748F4E92FAC
:1009D000F0E0ED52FE4F208130E09F5F90938C025B
:1009E000C901089580918B0290918C02891B990B0B
:1009F0000895CF92DF92EF92FF920F931F93CF93C0
:100A0000DF937C01CB018A0120916302222389F0CC
:100A1000EB016B01C40ED51ECC15DD0569F06991A3
:100A2000D701ED91FC910190F081E02DC70109956E
:100A3000F3CF642F0E946904C801DF91CF911F9109
:100A40000F91FF90EF90DF90CF900895CF93DF93B9
:100A50001F92CDB7DEB76983209163022223F9F09C
:100A600020918902203258F021E030E0FC013383EC
:100A7000228390E080E00F90DF91CF9108958091E4
:100A80008A02E82FF0E0EC59FD4F998190838F5F47
:100A900080938A028093890281E090E0ECCF61E04C
:100AA000CE0101960E946904F7CFCF92DF92EF92B8
:100AB000FF920F931F93CF93DF93FC01C48121E03A
:100AC00020936302C093840210928A0210928902DA
:100AD0008385682B89E393E00E942605D0918902E3
:100AE000D13208F092C00E9441016B017C018091DB
:100AF0005D02811165C082E080935D0281E0809398
:100B00005C028FEF80935B0210925A02D0935902DD
:100B1000A4E6B2E0E9E3F2E080E0D81385C01092E9
:100B2000380280913802CC0FC82BC09338028091D4
:100B30003702813009F07CC0109237020E944101D7
:100B40006B017C01809138028093BB0080915F0231
:100B500090916002A0916102B0916202892B8A2B70
:100B60008B2B99F00E94410100915F02109160026D
:100B700020916102309162026C197D098E099F09F2
:100B80000617170728073907E0F18091BC0083FD9D
:100B9000D9CF85EC8093BC000E9441016B017C01A0
:100BA00080915D02823009F445C080915B028F3FE5
:100BB00061F180915B02803241F180915B0225C03E
:100BC00080915F0290916002A0916102B0916202F7
:100BD000892B8A2B8B2B09F48ACF0E94410100912B
:100BE0005F021091600220916102309162026C19E3
:100BF0007D098E099F09061717072807390708F08E
:100C000076CF80915E020E94AE0410928A0210920A
:100C1000890210926302DF91CF911F910F91FF9093
:100C2000EF90DF90CF9008959D9191938F5F75CF56
:100C300085EEB0CF80915F0290916002A091610239
:100C4000B0916202892B8A2B8B2B09F4A9CF0E94C9
:100C5000410100915F021091600220916102309188
:100C600062026C197D098E099F090617170728076C
:100C7000390708F095CFC5CF90E080E008950F9335
:100C80001F93CF938C01C62F0E9455056C2F646073
:100C9000C8010E9455056C2F6B7FC8010E94550545
:100CA00083EC90E00197F1F7CF911F910F91089598
:100CB0000F931F93CF93DF938C01D62FC42F607FA8
:100CC000642B0E943F0680E1D89FB00111246C2B59
:100CD000C801DF91CF911F910F910C943F06CF93E4
:100CE000DF93CDB7DEB728970FB6F894DEBF0FBEFF
:100CF000CDBF98E0E7E0F1E0DE01119601900D92A2
:100D00009A95E1F790916003961710F46FEF690FD1
:100D1000262F30E0220F331F41E050E04C0F5D1FC3
:100D2000240F351FF9016081680F606840E088E595
:100D300093E028960FB6F894DEBF0FBECDBFDF91CB
:100D4000CF910C94580641E00E94580681E090E053
:100D50000895FB0101900020E9F73197AF01461B90
:100D6000570BDC01ED91FC910280F381E02D099499
:100D70008F929F92AF92BF92EF92FF920F931F9329
:100D8000CF93DF93CDB7DEB7A1970FB6F894DEBF50
:100D90000FBECDBF7C01FA01CB0119A2223008F4AD
:100DA0002AE08E010F5D1F4F822E912CB12CA12CB9
:100DB000BF01A50194010E94EE11F901CA016A3038
:100DC0000CF5605DD8016E938D01232B242B252B10
:100DD00079F790E080E0109721F0BD01C7010E94F3
:100DE000A906A1960FB6F894DEBF0FBECDBFDF9166
:100DF000CF911F910F91FF90EF90BF90AF909F9078
:100E00008F900895695CDECF482F50E070E060E07D
:100E10002AE088E593E00C94B806BC0188E593E0ED
:100E20000C94A9068093D2016093D1014093D00124
:100E300062E086E00E946F068FE391E00E940D075A
:100E400063E086E00E946F068091D2018A3060F4F0
:100E500063E086E00E946F0689E491E00E940D073E
:100E600063E087E00E946F068091D2010E94040730
:100E700063E088E00E946F068BE491E00E940D071A
:100E800063E089E00E946F068091D1018A3060F4AE
:100E900063E089E00E946F0689E491E00E940D07FB
:100EA00063E08AE00E946F068091D1010E940407EE
:100EB00063E08BE00E946F068BE491E00E940D07D7
:100EC00063E08CE00E946F068091D0018A3060F46C
:100ED00063E08CE00E946F0689E491E00E940D07B8
:100EE00063E08DE00E946F068091D0010C940407AE
:100EF0004F925F926F927F928F929F92AF92BF922A
:100F0000CF92DF92EF92FF920F931F93CF936B01DB
:100F10007C01742EAC019B010E94E9116DE471E02B
:100F2000811126C046015701E894B7F82FEF3FEF33
:100F30004FE75FE7C501B4010E94E91181110CC0C0
:100F40002FEF3FEF4FE75FE7C501B4010E947B0F32
:100F500061E571E0181664F02FEF3FEF4FE75FE4B3
:100F6000C701B6010E94E4111816ACF465E571E002
:100F70008CE992E0CF911F910F91FF90EF90DF905D
:100F8000CF90BF90AF909F908F907F906F905F9029
:100F90004F900C94A9062FEF3FEF4FE75FECC7018E
:100FA000B6010E947B0F87FDE1CF20E030E0A90170
:100FB000C701B6010E947B0F10E000E087FF0AC066
:100FC0006DE28CE992E00E94FB038C01F7FAF09449
:100FD000F7F8F094C0E060E070E080E09FE37C16FA
:100FE00041F020E030E040E251E40E944311CF5F45
:100FF000F6CFA70196010E94D7102B013C010E9459
:10100000B5114B015C012AE0BC01A4018CE992E01E
:101010000E94B8067C01E00EF11ECC23D1F1C5017F
:10102000B4010E94800F9B01AC01C301B2010E9478
:10103000D6104B015C016EE28CE992E00E94FB034A
:10104000E80EF91EC15028F120E030E040E251E402
:10105000C501B4010E94E10F2B013C010E94B511B2
:101060004B01B12CA12C2AE0B501A4018CE992E03E
:101070000E94B806E80EF91EC501B4010E94800F57
:101080009B01AC01C301B2010E94D6104B015C016F
:10109000D9CFC701CF911F910F91FF90EF90DF90B3
:1010A000CF90BF90AF909F908F907F906F905F9008
:1010B0004F9008958F929F92AF92BF92CF92DF92FE
:1010C000EF92FF920E94AA024B015C010E94A401D0
:1010D000882309F43FC080914B038B3030F08D3072
:1010E00058F08551823008F449C0C12CD12C80ECD5
:1010F000E82E8FE7F82E1EC06091460370E090E066
:1011000080E00E94820F2DEC3CEC4CEC5DE30E94F1
:10111000E10F6B017C016091450370E090E080E09D
:101120000E94820F9B01AC01C701B6010E94D7103B
:101130006B017C01A5019401C501B4010E94E91174
:10114000811108C0A7019601C701B6010E94E911EB
:10115000882331F169E571E08CE992E00E94A906EB
:1011600061E771E08CE992E0FF90EF90DF90CF9023
:10117000BF90AF909F908F900C94A906609145030B
:101180007091460376276727762790E080E00E94DB
:10119000800F2DEC3CEC4CEC5DE30E94E10FC8CFDE
:1011A00042E0C501B4010E94780761E771E08CE973
:1011B00092E00E94A90642E0C701B6010E947807AA
:1011C000CFCFCF93DF93DC0114962D913C911597EF
:1011D000232B79F0FB01CD91DC9160817181CE01EF
:1011E0000E940814009729F08C1B9D0BDF91CF9172
:1011F00008958FEF9FEFFACF0F931F93CF93DF9355
:10120000EC0188819981009759F02A813B8126174A
:10121000370730F081E0DF91CF911F910F91089552
:101220008B016F5F7F4F0E943B13009759F09983AA
:1012300088831B830A832C813D81232B59F7FC0172
:101240001082E8CF80E0E7CFCF93DF93EC01888175
:101250009981009711F00E94B212198218821D82A2
:101260001C821B821A82DF91CF910895EF92FF9228
:101270000F931F93CF93DF938C017B01EB010990B8
:101280000020E9F72197C61BD70BBE010E94FC087E
:10129000811109C0C801DF91CF911F910F91FF907B
:1012A000EF900C942409F801D583C483B7018081A1
:1012B0009181DF91CF911F910F91FF90EF900C944E
:1012C00001149F92AF92BF92CF92DF92EF92FF9262
:1012D0000F931F93CF93DF93EC016B015A017901B8
:1012E0002417350720F48B2D5901E42EF82E19828E
:1012F00018821B821A821D821C8263E771E0CE0174
:101300000E943609D60114960D911C91A016B106C3
:1013100058F5E016F10608F48701D601ED91FC912D
:101320001197E00FF11F90801082ED90FC90EA0C75
:10133000FB1CE114F10471F0F70101900020E9F7C2
:1013400031975F01AE18BF08B501CE010E94FC08BD
:10135000811117C0CE010E942409F601808191817C
:10136000080F191FD8019C92CE01DF91CF911F91D8
:101370000F91FF90EF90DF90CF90BF90AF909F9034
:101380000895BD82AC82B701888199810E940114C1
:10139000E4CFFC0180819181009711F00C94B2128E
:1013A000089585ED8093BC0080915F02909160026A
:1013B000A0916102B09162020796A11DB11D23E0C8
:1013C000B695A795979587952A95D1F72091BC005A
:1013D00024FD03C010925D02089540915F02509178
:1013E00060026091610270916202452B462B472B8F
:1013F00069F30097A105B10541F02AE22A95F1F7BA
:1014000000C00197A109B109E1CF80915E020C945F
:10141000AE041F920F920FB60F9211242F933F9399
:101420008F939F93AF93BF93809194029091950275
:10143000A0919602B09197023091930223E0230F7E
:101440002D3758F50196A11DB11D2093930280936D
:10145000940290939502A0939602B0939702809184
:10146000980290919902A0919A02B0919B020196E4
:10147000A11DB11D8093980290939902A0939A02A6
:10148000B0939B02BF91AF919F918F913F912F910C
:101490000F900FBE0F901F90189526E8230F02960D
:1014A000A11DB11DD2CF1F920F920FB60F92112422
:1014B0002F933F934F935F936F937F938F939F935C
:1014C000AF93BF93EF93FF938CE992E00E94D9030F
:1014D000FF91EF91BF91AF919F918F917F916F910C
:1014E0005F914F913F912F910F900FBE0F901F90E2
:1014F00018951F920F920FB60F9211242F938F936E
:101500009F93EF93FF93E091AC02F091AD02808145
:10151000E091B202F091B30282FD1BC090818091F4
:10152000B5028F5F8F732091B602821741F0E09170
:10153000B502F0E0E456FD4F958F8093B502FF9120
:10154000EF919F918F912F910F900FBE0F901F9051
:1015500018958081F4CF1F920F920FB60F9211242D
:101560002F933F934F935F936F937F938F939F93AB
:10157000AF93BF93EF93FF938091B900887F80363C
:1015800009F44AC0F0F5883209F4A7C018F5803193
:1015900009F49BC0B8F4882309F4F9C0883009F431
:1015A00094C0FF91EF91BF91AF919F918F917F91E7
:1015B0006F915F914F913F912F910F900FBE0F90C0
:1015C0001F901895883109F488C0803251F78093B4
:1015D0005B0214C0803409F49DC040F48033B9F339
:1015E0008833F9F680935B0285ECB0C0803509F44E
:1015F00085C0883509F496C0883499F60E94D109CF
:10160000D0CF883909F48CC038F5883729F050F4E8
:10161000883611F0803729F683E080935D021092BE
:10162000360257C0883809F47BC0803919F08038F9
:1016300009F0B7CF80913602803208F071C0E09196
:10164000360281E08E0F809336028091BB00F0E07D
:10165000EA5EFD4F80833DC0803B39F0E0F4803A84
:1016600009F479C0883A09F09CCF84E080935D0248
:101670001092150210921402E0918702F0918802F4
:1016800009958091140281110FC081E080931402AA
:101690001092F40109C0803C09F4A6CF883C09F4FB
:1016A000A3CF883B09F07DCFE091150281E08E0F3A
:1016B00080931502F0E0EC50FE4F80818093BB00D8
:1016C000909115028091140229C080913802809374
:1016D000BB0085EC8093BC0064CF90915A0280914E
:1016E0005902981758F5E0915A0281E08E0F8093C5
:1016F0005A02F0E0E75CFD4F8081E9CFE0915A02A9
:1017000081E08E0F80935A028091BB00F0E0E75C8D
:10171000FD4F808390915A02809159029817C8F228
:1017200085E8D8CFE0915A0281E08E0F80935A026B
:101730008091BB00F0E0E75CFD4F808380915C020C
:1017400081115CCF81E08093370284EA8093BC00F2
:1017500010925D0226CF85EC8093BC0010925D0252
:1017600080913602803230F4E0913602F0E0EA5E99
:10177000FD4F10826091360270E0E0918502F09199
:10178000860286E192E00995109236020ACF109205
:101790005B0234CFECE9F2E01382128288EE93E030
:1017A000A0E0B0E084839583A683B78323E131E092
:1017B0003183208325EC30E03587248724EC30E02A
:1017C0003787268720EC30E0318B208B21EC30E00E
:1017D000338B228B22EC30E0358B248B26EC30E0EF
:1017E000378B268B118E128E138E148EE9E3F3E065
:1017F0001382128284839583A683B78385E291E066
:1018000091838083E8E5F3E01382128287E391E01D
:101810009183808387E2848384E1818784E0828767
:101820001386A5E4B3E08BE015968C931597169676
:101830008C931697E9EBF0E0E4911796EC931797E9
:10184000E5EAF0E0E4911896EC93189740E85EE33F
:1018500060E070E01D964D935D936D937C9350977F
:101860000895CF93DF93CDB7DEB768970FB6F8949E
:10187000DEBF0FBECDBF789484B5826084BD84B5D1
:10188000816084BD85B5826085BD85B5816085BD7B
:1018900080916E00816080936E0010928100809133
:1018A00081008260809381008091810081608093BB
:1018B0008100809180008160809380008091B100E0
:1018C00084608093B1008091B00081608093B0000B
:1018D00080917A00846080937A0080917A0082609F
:1018E00080937A0080917A00816080937A00809161
:1018F0007A00806880937A001092C100E091AC0277
:10190000F091AD0282E08083E091A802F091A902FB
:101910001082E091AA02F091AB028FEC80831092CA
:10192000B402E091B002F091B10286E08083E091D0
:10193000AE02F091AF02808180618083E091AE02BF
:10194000F091AF02808188608083E091AE02F091D7
:10195000AF02808180688083E091AE02F091AF0297
:1019600080818F7D808310928C0210928B02109266
:101970008A02109289020E94900487E293E0909379
:1019800088028093870288E293E090938602809396
:10199000850210925D0380916203823018F098E016
:1019A00090935D038093600362E370E080E090E0D9
:1019B0000E9466016091630388E593E00E945505EB
:1019C00068EE73E080E090E00E94660160E388E5E5
:1019D00093E00E943F060BE416E4C8010197F1F77B
:1019E00060E388E593E00E943F06C8010197F1F7A4
:1019F00060E388E593E00E943F0683E592E001976B
:101A0000F1F760E288E593E00E943F0660915D0394
:101A1000606240E088E593E00E94580684E080938D
:101A20005E0340E06CE088E593E00E94580640E0E9
:101A300061E088E593E00E9458060BE31FE1C801CE
:101A40000197F1F782E080935F0340E066E088E56C
:101A500093E00E94580640E062E088E593E00E942F
:101A60005806C8010197F1F788E08093630360E0AE
:101A700088E593E00E94550562E080914A030E9448
:101A800010010E949801605D77408109910960937F
:101A90004E0370934F03809350039093510387E359
:101AA0008093570361E08DE00E94100161E087E0C0
:101AB0000E94100161E08CE00E94100162E089E068
:101AC0000E94100162E08AE00E94100162E088E05A
:101AD0000E94100190E0292E90E0392E0E945A08B1
:101AE0008CE992E00E94B903892B09F4B6C18CE914
:101AF00092E00E94B903892B09F4AFC11C8A1B8AAA
:101B00001E8A1D8A188E1F8A63E771E0CE014396F4
:101B10000E9436090E94790397FD1BC089831A82AF
:101B20000F89188D0F5F1F4FB801CE0143960E9499
:101B3000FC08882379F32B893C898F89988DBE0115
:101B40006F5F7F4F820F931F0E940114188F0F8BBE
:101B5000E1CF1A8219821C821B821E821D8264E7D9
:101B600071E0CE0101960E943609BE016F5F7F4F82
:101B7000CE0143960E94E1087C01CE0101960E94AD
:101B8000C9091A8219821C821B821E821D8263E887
:101B900071E0CE0101960E943609BE016F5F7F4F52
:101BA000CE0143960E94E1086C01CE0101960E948D
:101BB000C9091A8219821C821B821E821D8263E956
:101BC00071E0CE0101960E943609BE016F5F7F4F22
:101BD000CE0143960E94E1088C01CE0101960E943D
:101BE000C9099601225F3F4FA701425F5F4FBE01C7
:101BF0006D5E7F4FCE010D960E9461099801205FB6
:101C00003F4FA601415F5F4FBE016D5E7F4FCE012A
:101C100007960E9461092F89388DA8014F5E5F4F9A
:101C2000BE016D5E7F4FCE0101960E9461098D85D8
:101C30009E85009709F4F6C00E943F0F7B018F81BB
:101C40009885009709F4F2C00E943F0F8B018981AB
:101C50009A81009709F4EEC00E943F0FF0928E0225
:101C6000E0928D021093900200938F027093920283
:101C700060939102CE0101960E94C909CE01079698
:101C80000E94C909CE010D960E94C909CE01439652
:101C90000E94C909409191025091920260918F0275
:101CA0007091900280918D0290918E0223E020939A
:101CB00000010E941207409191025091920260919E
:101CC0008F027091900280918D0290918E020E94FD
:101CD000120781E08093000100919102109192021D
:101CE000E0908F02F0909002C0908D02D0908E0212
:101CF0000E9498012B013C010E9498014B015C015C
:101D000020ED37E040E050E00E94EE11672B682B99
:101D1000692B11F40E945A08D501C4018419950950
:101D2000A609B709883E9340A105B10528F301151E
:101D3000110509F089C0E114F10409F07FC0C11454
:101D4000D10409F48AC081E0C81AD1080BE310E07D
:101D500087E1E82EF12CA801B701C6010E94120705
:101D600062E080E10E946F0685EA91E00E940D0723
:101D700063E081E10E946F0680910001833009F0E9
:101D800066C080E00E94040760E083E00E946F0666
:101D90008AEA91E00E940D0761E080E00E946F06F0
:101DA00089EB91E00E940D0762E085E00E946F06DA
:101DB0008EEC91E00E940D0763E085E00E946F06C3
:101DC0008EEC91E00E940D0762E08EE00E946F06AB
:101DD0008EEC91E00E940D0763E08EE00E946F069A
:101DE0008EEC91E00E940D070E94AA022B013C019B
:101DF00020E030E040E85FE30E94E41160E087FF0C
:101E00000BC020E030E040E85FEBC301B2010E946C
:101E10007B0F181624F061E08DE00E94C4002401BD
:101E200035016ACF60E070E0CB0108CF60E070E080
:101E3000CB010CCF60E070E0CB0110CF21E0E21AC3
:101E4000F1080BE310E087CF0150110984CF0E9405
:101E5000AA020E94B511862F95CF64EF71E080E051
:101E600090E00E9466012114310409F437CE0E94EB
:101E7000C503882309F432CE0E9400002FCE1F93A1
:101E8000FC0199278827BC01E89411911032E9F3ED
:101E9000193010F01E30C8F31B3251F01D3249F4D6
:101EA000689406C00E94660F610F711D811D911D0F
:101EB000119110531A30B0F33EF4909580957095BF
:101EC00061957F4F8F4F9F4F1F910895592F482F36
:101ED000372F262F660F771F881F991F660F771FD2
:101EE000881F991F620F731F841F951F660F771F2E
:101EF000881F991F08950E94BD0F08F481E008957E
:101F0000E89409C097FB3EF4909580957095619593
:101F10007F4F8F4F9F4F9923A9F0F92F96E9BB2749
:101F20009395F695879577956795B795F111F8CFC5
:101F3000FAF4BB0F11F460FF1BC06F5F7F4F8F4F30
:101F40009F4F16C0882311F096E911C0772321F026
:101F50009EE8872F762F05C0662371F096E8862FBE
:101F600070E060E02AF09A95660F771F881FDAF715
:101F7000880F9695879597F90895990F0008550F42
:101F8000AA0BE0E8FEEF16161706E807F907C0F0FF
:101F900012161306E407F50798F0621B730B840B07
:101FA000950B39F40A2661F0232B242B252B21F4E1
:101FB00008950A2609F4A140A6958FEF811D811D81
:101FC00008950E94F40F0C9465100E94571038F089
:101FD0000E945E1020F0952311F00C944E100C948A
:101FE000541011240C9499100E94761070F3959F50
:101FF000C1F3950F50E0551F629FF001729FBB2700
:10200000F00DB11D639FAA27F00DB11DAA1F649F9B
:102010006627B00DA11D661F829F2227B00DA11D4E
:10202000621F739FB00DA11D621F839FA00D611DD4
:10203000221F749F3327A00D611D231F849F600DF5
:10204000211D822F762F6A2F11249F5750409AF01E
:10205000F1F088234AF0EE0FFF1FBB1F661F771FAA
:10206000881F91505040A9F79E3F510580F00C9475
:102070004E100C9499105F3FE4F3983ED4F386958C
:1020800077956795B795F795E7959F5FC1F7FE2B15
:10209000880F911D9695879597F9089597F99F67F1
:1020A00080E870E060E008959FEF80EC08950024E0
:1020B0000A941616170618060906089500240A94AD
:1020C00012161306140605060895092E0394000C33
:1020D00011F4882352F0BB0F40F4BF2B11F460FFC2
:1020E00004C06F5F7F4F8F4F9F4F089557FD9058EB
:1020F000440F551F59F05F3F71F04795880F97FBCC
:10210000991F61F09F3F79F0879508951216130685
:102110001406551FF2CF4695F1DF08C016161706B4
:102120001806991FF1CF86957105610508940895E9
:10213000E894BB2766277727CB0197F908952F925C
:102140003F924F925F926F927F928F929F92AF9247
:10215000BF92CF92DF92EF92FF920F931F93CF9394
:10216000DF93CDB7DEB7CA1BDB0B0FB6F894DEBF2B
:102170000FBECDBF09942A88398848885F846E8451
:102180007D848C849B84AA84B984C884DF80EE809B
:10219000FD800C811B81AA81B981CE0FD11D0FB6A4
:1021A000F894DEBF0FBECDBFED0108955058BB2798
:1021B000AA270E94EE100C9465100E94571038F068
:1021C0000E945E1020F039F49F3F19F426F40C941D
:1021D00054100EF4E095E7FB0C944E10E92F0E948A
:1021E000761058F3BA17620773078407950720F033
:1021F00079F4A6F50C9498100EF4E0950B2EBA2FF6
:10220000A02D0B01B90190010C01CA01A0011124FC
:10221000FF27591B99F0593F50F4503E68F11A16A8
:10222000F040A22F232F342F4427585FF3CF469539
:1022300037952795A795F0405395C9F77EF41F165B
:10224000BA0B620B730B840BBAF09150A1F0FF0F25
:10225000BB1F661F771F881FC2F70EC0BA0F621F11
:10226000731F841F48F4879577956795B795F79501
:102270009E3F08F0B0CF9395880F08F09927EE0F96
:102280009795879508950E9457110C9465100E94A8
:102290005E1058F00E94571040F029F45F3F29F07B
:1022A0000C944E1051110C9499100C9454100E94DF
:1022B000761068F39923B1F3552391F3951B550BD1
:1022C000BB27AA2762177307840738F09F5F5F4F09
:1022D000220F331F441FAA1FA9F335D00E2E3AF048
:1022E000E0E832D091505040E695001CCAF72BD060
:1022F000FE2F29D0660F771F881FBB1F26173707B1
:102300004807AB07B0E809F0BB0B802DBF01FF27E2
:1023100093585F4F3AF09E3F510578F00C944E1061
:102320000C9499105F3FE4F3983ED4F3869577952B
:102330006795B795F7959F5FC9F7880F911D96959B
:10234000879597F90895E1E0660F771F881FBB1FF7
:10235000621773078407BA0720F0621B730B840BA4
:10236000BA0BEE1F88F7E09508950E947E1088F062
:102370009F5798F0B92F9927B751B0F0E1F0660F49
:10238000771F881F991F1AF0BA95C9F714C0B1308A
:1023900091F00E949810B1E008950C949810672F66
:1023A000782F8827B85F39F0B93FCCF386957795B9
:1023B0006795B395D9F73EF49095809570956195A2
:1023C0007F4F8F4F9F4F08950E94BD0F08F48FEFEE
:1023D00008950E94BD0F880B990B0895A1E21A2E53
:1023E000AA1BBB1BFD010DC0AA1FBB1FEE1FFF1FB9
:1023F000A217B307E407F50720F0A21BB30BE40B09
:10240000F50B661F771F881F991F1A9469F760954F
:102410007095809590959B01AC01BD01CF01089509
:10242000EE0FFF1F0590F491E02D09940F931F9379
:10243000CF93DF938230910510F482E090E0E09139
:102440006603F091670330E020E0B0E0A0E0309751
:1024500099F42115310509F44AC0281B390B2430A1
:102460003105D8F58A819B816115710589F1FB01E0
:1024700093838283FE0111C04081518102811381C7
:1024800048175907E0F04817590799F4109761F079
:1024900012960C93129713961C933296CF01DF91EC
:1024A000CF911F910F9108950093660310936703D6
:1024B000F4CF2115310551F04217530738F0A90127
:1024C000DB019A01BD01DF01F801C1CFEF01F9CFB6
:1024D0009093670380936603CDCFFE01E20FF31F55
:1024E000819391932250310939832883D7CF20914A
:1024F000640330916503232B41F420910301309153
:10250000040130936503209364032091010130910D
:1025100002012115310541F42DB73EB74091050167
:1025200050910601241B350BE0916403F091650383
:10253000E217F307A0F42E1B3F0B2817390778F09A
:10254000AC014E5F5F4F2417350748F04E0F5F1FF9
:102550005093650340936403819391939FCFF0E080
:10256000E0E09CCFCF93DF930097E9F0FC01329736
:1025700013821282A0916603B0916703ED0130E0EF
:1025800020E01097A1F420813181820F931F2091C8
:102590006403309165032817390709F061C0F0938F
:1025A0006503E0936403DF91CF910895EA01CE17AC
:1025B000DF07E8F54A815B819E0141155105B1F7BE
:1025C000E901FB83EA8349915991C40FD51FEC17A8
:1025D000FD0761F4808191810296840F951FE901C6
:1025E00099838883828193819B838A83F0E0E0E0F2
:1025F00012968D919C9113970097B9F52D913C916E
:102600001197CD010296820F931F209164033091A0
:1026100065032817390739F6309751F5109267038B
:1026200010926603B0936503A0936403BCCFD38379
:10263000C28340815181840F951FC817D90761F467
:102640004E5F5F4F88819981480F591F51834083A6
:102650008A819B81938382832115310509F0B0CF54
:10266000F0936703E09366039ECFFD01DC01C0CFCA
:1026700013821282D7CFB0E0A0E0E1E4F3E10C9442
:10268000A1108C01009751F4CB010E9416128C010D
:10269000C801CDB7DEB7E0E10C94BD10FC01E60F38
:1026A000F71F9C0122503109E217F30708F49DC07F
:1026B000D901CD91DC911197C617D70798F0C53095
:1026C000D10530F3CE0104978617970708F3C61B90
:1026D000D70B2297C193D1936D937C93CF010E9426
:1026E000B212D6CF5B01AC1ABD0A4C018C0E9D1EF6
:1026F000A0916603B0916703512C412CF12CE12C81
:10270000109731F5809164039091650388159905C0
:1027100009F05CC04616570608F058C080910101C8
:1027200090910201009741F48DB79EB74091050149
:1027300050910601841B950BE817F90708F055C066
:10274000F0936503E0936403F90171836083A0CF84
:102750008D919C91119712966C90129713967C9084
:102760001397A815B90559F56C0142E0C40ED11CA8
:10277000CA14DB0420F1AC014A195B09DA01129694
:10278000159780F06282738251834083D9016D93E3
:102790007C93E114F10471F0D7011396FC93EE934E
:1027A000129776CF22968C0F9D1FF901918380831B
:1027B000F301EFCFF0936703E093660369CF481608
:1027C000590608F42C017D01D3019ACFCB010E9458
:1027D00016127C01009749F0AE01B8010E94F8136F
:1027E000C8010E94B212870153CF10E000E050CF21
:1027F000FB01DC0102C001900D9241505040D8F71E
:102800000895FB01DC0101900D920020E1F708958D
:10281000FB0151915523A9F0BF01DC014D914517F2
:102820004111E1F759F4CD010190002049F04D919B
:1028300040154111C9F3FB014111EFCF81E090E058
:0828400001970895F894FFCF01
:1028480003000068038000000040001400540000EA
:10285800000000FB03290356034804B9036503ABD2
:1028680003000000002605F9043C06CF04F204DF4B
:1028780004D00400000000A30629033C06680454A1
:10288800696D6548617463680030003A006E616E76
:1028980000696E66006F7666004661696C65642043
:1028A800746F20726561642066726F6D20444854AD
:1028B800000D0A0064617954696D65546F4861744C
:1028C800636800686F757254696D65546F48617408
:1028D8006368006D696E75746554696D65546F48F9
:1028E800617463680054656D700042554F4E47200F
:1028F8004150205452554E47003D3D3D3D3D3D3DE4
:102908003D3D3D3D3D3D3D3D3D3D3D3D3D007C002A
:00000001FF
