:100000000C9462000C948A000C948A000C948A0070
:100010000C948A000C948A000C948A000C948A0038
:100020000C948A000C948A000C948A000C948A0028
:100030000C948A000C948A000C948A000C948A0018
:100040000C94C5080C948A000C9435090C940F0983
:100050000C948A000C948A000C948A000C948A00F8
:100060000C9467090C948A0000000000240027000B
:100070002A0000000000250028002B0000000008D6
:10008000000201000003040700000000000000005F
:1000900000000000230026002900040404040404D6
:1000A0000404020202020202030303030303010227
:1000B00004081020408001020408102001020408F6
:1000C0001020860A11241FBECFEFD8E0DEBFCDBFBF
:1000D00023E0A2ECB1E001C01D92A935B207E1F71F
:1000E00011E0A0E0B1E0EEE5F6E202C005900D926D
:1000F000A23CB107D9F710E0C2E6D0E004C02197D6
:10010000FE010E941B11C136D107C9F70E94ED0AFA
:100110000C942D130C940000CF92DF92EF92FF927B
:10012000CF93DF93B0913D03A0E08111AB2F80917D
:100130003E0390E0880F991FAC0140575F4FC0907D
:100140004303D0904403E0904503F090460330E031
:1001500020E0FA01C591D491E881B90190E080E0F6
:10016000EB23EA130AC02F5F3F4F6C157D058E0508
:100170009F0578F36FEF7FEFCB01DF91CF91FF9079
:10018000EF90DF90CF90089590E0FC01E458FF4F8E
:100190002491FC01E255FF4F3491FC01E656FF4FDC
:1001A000E491EE23C9F0222339F0233001F1A8F4C1
:1001B000213019F1223029F1F0E0EE0FFF1FEE5847
:1001C000FF4FA591B4918FB7F894EC91611126C0BF
:1001D00030953E233C938FBF08952730A9F02830F7
:1001E000C9F0243049F7809180008F7D03C0809151
:1001F00080008F7780938000DFCF84B58F7784BDB8
:10020000DBCF84B58F7DFBCF8091B0008F7780935B
:10021000B000D2CF8091B0008F7DF9CF3E2BDACFE6
:10022000CF93DF9390E0FC01E255FF4F2491865677
:100230009F4FFC0184918823D1F090E0880F991F93
:10024000FC01E859FF4FA591B491FC01EE58FF4F16
:10025000C591D491623071F49FB7F8943C91822F8C
:10026000809583238C93E8812E2B28839FBFDF9179
:10027000CF9108958FB7F894EC912E2B2C938FBFCC
:10028000F6CF3FB7F8948091850290918602A091B5
:100290008702B091880226B5A89B05C02F3F19F0B0
:1002A0000196A11DB11D3FBFBA2FA92F982F8827F6
:1002B000BC01CD01620F711D811D911D42E0660FD1
:1002C000771F881F991F4A95D1F708958F929F92A3
:1002D000AF92BF92CF92DF92EF92FF924B015C01FF
:1002E0000E9441016B017C010E9441016C197D0952
:1002F0008E099F09683E734081059105A8F321E0AE
:10030000821A9108A108B10888EEC80E83E0D81EB1
:10031000E11CF11C81149104A104B10429F7FF90A0
:10032000EF90DF90CF90BF90AF909F908F90089507
:10033000CF92DF92EF92FF920F931F93CF93DF93B1
:10034000CDB7DEB7C054D1400FB6F894DEBF0FBEB4
:10035000CDBF2FB7F8948091890290918A02A09125
:100360008B02B0918C022FBF40913F03509140030C
:1003700060914103709142038C019D01041B150B98
:10038000260B370BB901A801403D574061057105A7
:1003900090F480914703C05CDE4F0FB6F894DEBF47
:1003A0000FBECDBFDF91CF911F910F91FF90EF90C6
:1003B000DF90CF90089580933F0390934003A093E4
:1003C0004103B093420310923A0310923903109202
:1003D0003803109237031092360362E080913B039A
:1003E0000E94100161E070E080E090E00E946601F0
:1003F00061E080913B030E94100160E080913B032B
:100400000E94C40080913C038551823020F58BE22C
:1004100091E10197F1F762E080913B030E941001A6
:100420008091480390E08230910538F0880F991F41
:10043000880F991F05970197F1F7F89480E00E94C3
:100440008C006F3F7F4F8F4F9F4F61F41092470397
:10045000789480E0A0CF64E170E080E090E00E94BA
:100460006601D9CF81E00E948C006F3F7F4F8F4F94
:100470009F4F61F38E010F5F1F4F6E018FEBC81A04
:100480008EEFD80A780180E00E948C00F70160832B
:1004900071838283938381E00E948C00F7016483DF
:1004A000758386839783F8E0EF0EF11CEC14FD044E
:1004B00051F7789430E020E0F801C080D180E280EC
:1004C000F3804481558166817781FFEFCF16DF0687
:1004D000EF06FF0631F04F3F8FEF580768077807A8
:1004E00019F410924703B5CFF90183E0F595E7952C
:1004F0008A95E1F7EA5CFC4F8081880FC416D50627
:10050000E606F70610F180832F5F3F4F085F1F4F0D
:100510002832310589F640913A03209136038091C3
:100520003703280F3327331F80913803280F311DDD
:1005300080913903820F932F911D9927481719062F
:1005400081F681E08093470326CF8160DCCF089558
:100550000895AF92BF92CF92DF92EF92FF920F93E6
:100560001F93CF93DF936C017B018B01040F151F49
:10057000EB015E01AE18BF08C017D10759F06991B1
:10058000D601ED91FC910190F081E02DC601099515
:10059000892B79F7C501DF91CF911F910F91FF90C2
:1005A000EF90DF90CF90BF90AF900895FC01538DF6
:1005B000448D252F30E0842F90E0821B930B54173D
:1005C00010F0CF96089501970895FC01918D828DCA
:1005D000981761F0A28DAE0FBF2FB11D5D968C9163
:1005E000928D9F5F9F73928F90E008958FEF9FEFA2
:1005F00008952FB7F8948091890290918A02A09172
:100600008B02B0918C022FBF80939502909396023B
:10061000A0939702B09398028DE892E00E94E502C1
:1006200097FF26C02FB7F8948091890290918A0293
:10063000A0918B02B0918C022FBF409195025091F6
:1006400096026091970270919802841B950BA60BFD
:10065000B70B409191025091920260919302709178
:10066000940284179507A607B707B0F28FEF9FEFA4
:100670000895FC01918D828D981731F0828DE80FDD
:10068000F11D858D90E008958FEF9FEF0895FC0197
:10069000918D228D892F90E0805C9F4F821B910964
:1006A0008F73992708958DE892E00E94470321E017
:1006B000892B09F420E0822F089580E090E0892BB7
:1006C00029F00E94530381110C9400000895FC014D
:1006D000A48DA80FB92FB11DA35ABF4F2C91848DA3
:1006E00090E001968F739927848FA689B7892C9300
:1006F000A089B1898C91837080648C93938D848D53
:10070000981306C00288F389E02D80818F7D808355
:100710000895EF92FF920F931F93CF93DF93EC0115
:1007200081E0888F9B8D8C8D98131AC0E889F98998
:10073000808185FF15C09FB7F894EE89FF8960839B
:10074000E889F98980818370806480839FBF81E01C
:1007500090E0DF91CF911F910F91FF90EF9008955E
:10076000F62E0B8D10E00F5F1F4F0F731127E02E39
:100770008C8D8E110CC00FB607FCFACFE889F98971
:10078000808185FFF5CFCE010E946703F1CFEB8D0D
:10079000EC0FFD2FF11DE35AFF4FF0829FB7F89445
:1007A0000B8FEA89FB8980818062CFCFCF93DF9363
:1007B000EC01888D8823B9F0AA89BB89E889F98979
:1007C0008C9185FD03C0808186FD0DC00FB607FCAE
:1007D000F7CF8C9185FFF2CF808185FFEDCFCE01E1
:1007E0000E946703E9CFDF91CF910895089520918A
:1007F0000302260F3327331F21323105ECF42091F9
:100800004C02FC0190E080E0243069F082E0089521
:10081000A09103022191AC014D515E4FA40FB52F61
:10082000B11D2C930196861798F380910302680FEF
:100830006093030280E0089581E0089510924C02D5
:1008400081E080934B021092260261E082E10E94D7
:10085000C40061E083E10E94C400E9EBF0E0808124
:100860008E7F808380818D7F808388E48093B80031
:1008700085E48093BC000895CF93DF9391E090933B
:10088000E2018823B9F0C091B800D091BA008091FC
:10089000BC008A7B8093BC0060E082E10E94C400BF
:1008A00060E083E10E94C4000E941E04D093BA005D
:1008B000C093B800DF91CF9108950895E0917B0235
:1008C00080917A02E81730F4F0E0EE53FE4F808119
:1008D00090E008958FEF9FEF089590917B028091B3
:1008E0007A022FEF3FEF981748F4E92FF0E0EE532C
:1008F000FE4F208130E09F5F90937B02C9010895F5
:1009000080917A0290917B02891B990B0895CF9276
:10091000DF92EF92FF920F931F93CF93DF937C01AF
:10092000CB018A0120915202222389F0EB016B0155
:10093000C40ED51ECC15DD0569F06991D701ED9186
:10094000FC910190F081E02DC7010995F3CF642F50
:100950000E94F703C801DF91CF911F910F91FF9083
:10096000EF90DF90CF900895CF93DF931F92CDB794
:10097000DEB76983209152022223F9F02091780298
:10098000203258F021E030E0FC013383228390E0F4
:1009900080E00F90DF91CF91089580917902E82F48
:1009A000F0E0ED5AFD4F998190838F5F809379023B
:1009B0008093780281E090E0ECCF61E0CE01019677
:1009C0000E94F703F7CFCF92DF92EF92FF920F933F
:1009D0001F93CF93DF93FC01C48121E02093520247
:1009E000C093730210927902109278028385682B6B
:1009F0008AE293E00E94B404D0917802D13208F0E8
:100A000092C00E9441016B017C0180914C028111D6
:100A100065C082E080934C0281E080934B028FEFAF
:100A200080934A0210924902D0934802A3E5B2E0B3
:100A3000E8E2F2E080E0D81385C0109227028091AE
:100A40002702CC0FC82BC093270280912602813049
:100A500009F07CC0109226020E9441016B017C01CA
:100A6000809127028093BB0080914E0290914F02AB
:100A7000A0915002B0915102892B8A2B8B2B99F0B7
:100A80000E94410100914E0210914F0220915002AC
:100A9000309151026C197D098E099F0906171707BD
:100AA00028073907E0F18091BC0083FDD9CF85ECA0
:100AB0008093BC000E9441016B017C0180914C023B
:100AC000823009F445C080914A028F3F61F18091E4
:100AD0004A02803241F180914A0225C080914E0243
:100AE00090914F02A0915002B0915102892B8A2B14
:100AF0008B2B09F48ACF0E94410100914E02109184
:100B00004F0220915002309151026C197D098E09DB
:100B10009F09061717072807390708F076CF809135
:100B20004D020E943C0410927902109278021092B9
:100B30005202DF91CF911F910F91FF90EF90DF90C4
:100B4000CF9008959D9191938F5F75CF85EEB0CF33
:100B500080914E0290914F02A0915002B0915102AB
:100B6000892B8A2B8B2B09F4A9CF0E94410100917C
:100B70004E0210914F0220915002309151026C1997
:100B80007D098E099F09061717072807390708F0FE
:100B900095CFC5CF90E080E00895FC010190002042
:100BA000E9F73197AF01481B590BBC018DE892E082
:100BB0000C94A9028F929F92AF92BF920F931F93B2
:100BC000CF93DF93CDB7DEB7A1970FB6F894DEBF12
:100BD0000FBECDBF19A2423008F44AE08E010F5D6E
:100BE0001F4F842E912CB12CA12CA50194010E94A1
:100BF000F910E62FB901CA01EA30F4F4E05DD8013A
:100C0000EE938D01232B242B252B79F790E080E0A8
:100C1000109719F0CD010E94CD05A1960FB6F8945A
:100C2000DEBF0FBECDBFDF91CF911F910F91BF905F
:100C3000AF909F908F900895E95CE1CF4F925F92C3
:100C40006F927F928F929F92AF92BF92CF92DF92DC
:100C5000EF92FF920F931F93CF936B017C01742E41
:100C6000AC019B010E94F410882399F086E391E087
:100C7000CF911F910F91FF90EF90DF90CF90BF9099
:100C8000AF909F908F907F906F905F904F900C945B
:100C9000CD0546015701E894B7F82FEF3FEF4FE736
:100CA0005FE7C501B4010E94F41081110DC02FEF60
:100CB0003FEF4FE75FE7C501B4010E94860E1816AB
:100CC0001CF48AE391E0D4CF2FEF3FEF4FE75FE4CE
:100CD000C701B6010E94EF1018161CF48EE391E0D4
:100CE000C7CF2FEF3FEF4FE75FECC701B6010E9480
:100CF000860E87FDF3CF20E030E0A901C701B601E1
:100D00000E94860E10E000E087FF0AC06DE28DE8C9
:100D100092E00E9489038C01F7FAF094F7F8F094BE
:100D2000C0E060E070E080E09FE37C1641F020E0EE
:100D300030E040E251E40E944E10CF5FF6CFA701B1
:100D400096010E94E20F2B013C010E94C0104B0152
:100D50005C014AE00E94DA057C01E00EF11ECC2322
:100D6000C1F1C501B4010E948B0E9B01AC01C3010E
:100D7000B2010E94E10F4B015C016EE28DE892E04E
:100D80000E948903E80EF91EC15018F120E030E0FE
:100D900040E251E4C501B4010E94EC0E2B013C017C
:100DA0000E94C0104B01B12CA12C4AE0C501B40136
:100DB0000E94DA05E80EF91EC501B4010E948B0EEF
:100DC0009B01AC01C301B2010E94E10F4B015C0128
:100DD000DBCFC701CF911F910F91FF90EF90DF9074
:100DE000CF90BF90AF909F908F907F906F905F90CB
:100DF0004F900895CF92DF92EF92FF92CF93DF93BF
:100E00006C01990FEE08FF08F7FE1FC06DE28DE838
:100E100092E00E948903EC0166277727CB016C19C9
:100E20007D098E099F094AE00E94DA05C80FD91F83
:100E300082E491E00E94CD058C0F9D1FDF91CF9140
:100E4000FF90EF90DF90CF9008954AE0C701B60180
:100E50000E94DA05EC01ECCF0F931F93CF938C0126
:100E6000C62F0E94E3046C2F6460C8010E94E30453
:100E70006C2F6B7FC8010E94E30483EC90E0019724
:100E8000F1F7CF911F910F9108950F931F93CF9377
:100E9000DF938C01D62FC42F607F642B0E942C0718
:100EA00080E1D89FB00111246C2BC801DF91CF9154
:100EB0001F910F910C942C0741E00E94450781E09F
:100EC00090E00895FC0180819181009711F00C94CD
:100ED0004A0E60E070E0CB010895FC0180819181B1
:100EE000009711F00C94BD110895CF93DF93DC01AE
:100EF00014962D913C911597232B79F0FB01CD9100
:100F0000DC9160817181CE010E941313009729F05A
:100F10008C1B9D0BDF91CF9108958FEF9FEFFACF40
:100F20000F931F93CF93DF93EC01888199810097F2
:100F300059F02A813B812617370730F081E0DF9195
:100F4000CF911F910F9108958B016F5F7F4F0E948A
:100F50004612009759F0998388831B830A832C815A
:100F60003D81232B59F7FC011082E8CF80E0E7CFC9
:100F7000EF92FF920F931F93CF93DF93EC017B01CE
:100F80008A01BA010E94900728813981811114C019
:100F90002115310519F0C9010E94BD11198218826D
:100FA0001D821C821B821A82CE01DF91CF911F917C
:100FB0000F91FF90EF9008951D830C83B701C90135
:100FC0000E940C13F1CFFC01118210821382128255
:100FD00015821482FB0101900020E9F73197AF01DF
:100FE000461B570B0C94B807EF92FF920F931F9379
:100FF000CF93DF9300D0CDB7DEB78C0164E471E00E
:101000000E94E3070E94F90297FD1EC089831A829D
:10101000F801E480F580FFEFEF1AFF0AB701C8017D
:101020000E949007882371F3F80120813181848127
:101030009581BE016F5F7F4F820F931F0E940C133B
:10104000F801F582E482DECFC8010F900F90DF91A6
:10105000CF911F910F91FF90EF900895AF92BF92A3
:10106000CF92DF92EF92FF920F931F93CF93DF9374
:10107000EC016B015A0179012417350720F48B2DFF
:101080005901E42EF82E64E471E0CE010E94E307DA
:10109000D60114960D911C91A016B10628F5E01604
:1010A000F10608F48701D601ED91FC911197E00F4C
:1010B000F11FF08010826D917C916A0D7B1D61158E
:1010C0007105F1F0FB0101900020E9F73197AF01C4
:1010D000461B570BCE010E94B807F6018081918113
:1010E000080F191FD801FC92CE01DF91CF911F91FB
:1010F0000F91FF90EF90DF90CF90BF90AF90089549
:1011000088819981009711F00E94BD11198218827F
:101110001D821C821B821A82E0CF85ED8093BC0069
:1011200080914E0290914F02A0915002B0915102D5
:101130000796A11DB11D23E0B695A79597958795B4
:101140002A95D1F72091BC0024FD03C010924C02D7
:10115000089540914E0250914F026091500270915B
:101160005102452B462B472B69F30097A105B1058A
:1011700041F02AE22A95F1F700C00197A109B109CF
:10118000E1CF80914D020C943C041F920F920FB658
:101190000F9211242F933F938F939F93AF93BF93FD
:1011A0008091890290918A02A0918B02B0918C0269
:1011B0003091840223E0230F2D3758F50196A11DAD
:1011C000B11D209384028093890290938A02A09398
:1011D0008B02B0938C028091850290918602A0913F
:1011E0008702B09188020196A11DB11D80938502EE
:1011F00090938602A0938702B0938802BF91AF912B
:101200009F918F913F912F910F900FBE0F901F9044
:10121000189526E8230F0296A11DB11DD2CF1F926B
:101220000F920FB60F9211242F933F934F935F931A
:101230006F937F938F939F93AF93BF93EF93FF939E
:101240008DE892E00E946703FF91EF91BF91AF910B
:101250009F918F917F916F915F914F913F912F91CE
:101260000F900FBE0F901F9018951F920F920FB600
:101270000F9211242F938F939F93EF93FF93E091FD
:101280009D02F0919E028081E091A302F091A40260
:1012900082FD1BC090818091A6028F5F8F73209189
:1012A000A702821741F0E091A602F0E0E357FD4F5C
:1012B000958F8093A602FF91EF919F918F912F912F
:1012C0000F900FBE0F901F9018958081F4CF1F9242
:1012D0000F920FB60F9211242F933F934F935F936A
:1012E0006F937F938F939F93AF93BF93EF93FF93EE
:1012F0008091B900887F803609F44AC0F0F58832C1
:1013000009F4A7C018F5803109F49BC0B8F488230C
:1013100009F4F9C0883009F494C0FF91EF91BF91AE
:10132000AF919F918F917F916F915F914F913F917D
:101330002F910F900FBE0F901F901895883109F4D0
:1013400088C0803251F780934A0214C0803409F477
:101350009DC040F48033B9F38833F9F680934A0294
:1013600085ECB0C0803509F485C0883509F496C095
:10137000883499F60E948D08D0CF883909F48CC042
:1013800038F5883729F050F4883611F0803729F67F
:1013900083E080934C021092250257C0883809F4EC
:1013A0007BC0803919F0803809F0B7CF80912502D1
:1013B000803208F071C0E091250281E08E0F8093A9
:1013C00025028091BB00F0E0EB5FFD4F80833DC0C4
:1013D000803B39F0E0F4803A09F479C0883A09F0AA
:1013E0009CCF84E080934C0210920402109203027E
:1013F000E0917602F09177020995809103028111C4
:101400000FC081E0809303021092E30109C0803C89
:1014100009F4A6CF883C09F4A3CF883B09F07DCF1F
:10142000E091040281E08E0F80930402F0E0ED5120
:10143000FE4F80818093BB00909104028091030253
:1014400029C0809127028093BB0085EC8093BC006B
:1014500064CF9091490280914802981758F5E09125
:10146000490281E08E0F80934902F0E0E85DFD4F74
:101470008081E9CFE091490281E08E0F809349029B
:101480008091BB00F0E0E85DFD4F808390914902C0
:10149000809148029817C8F285E8D8CFE0914902B8
:1014A00081E08E0F809349028091BB00F0E0E85DFF
:1014B000FD4F808380914B0281115CCF81E080934E
:1014C000260284EA8093BC0010924C0226CF85EC61
:1014D0008093BC0010924C0280912502803230F43F
:1014E000E0912502F0E0EB5FFD4F10826091250254
:1014F00070E0E0917402F091750285E092E0099548
:10150000109225020ACF10924A0234CFEDE8F2E0A1
:101510001382128288EE93E0A0E0B0E0848395838A
:10152000A683B7832AE031E03183208325EC30E0C5
:101530003587248724EC30E03787268720EC30E09D
:10154000318B208B21EC30E0338B228B22EC30E08E
:10155000358B248B26EC30E0378B268B118E128E48
:10156000138E148EEAE2F3E0138212828483958351
:10157000A683B7838CE191E091838083E9E4F3E073
:10158000138212828EE291E09183808387E28483CA
:1015900084E1818784E082871386A6E3B3E08BE051
:1015A00015968C93159716968C931697E9EBF0E0A9
:1015B000E4911796EC931797E5EAF0E0E49118961A
:1015C000EC93189740E85EE360E070E01D964D9361
:1015D0005D936D937C9350970895CF93DF93CDB730
:1015E000DEB7A4970FB6F894DEBF0FBECDBF7894D8
:1015F00084B5826084BD84B5816084BD85B5826018
:1016000085BD85B5816085BD80916E0081608093C8
:101610006E00109281008091810082608093810031
:101620008091810081608093810080918000816041
:10163000809380008091B10084608093B10080919C
:10164000B00081608093B00080917A0084608093C4
:101650007A0080917A00826080937A0080917A008B
:10166000816080937A0080917A00806880937A000C
:101670001092C100E0919D02F0919E0282E0808371
:10168000E0919902F0919A021082E0919B02F09110
:101690009C028FEC80831092A502E091A102F09150
:1016A000A20286E08083E0919F02F091A0028081F7
:1016B00080618083E0919F02F091A0028081886028
:1016C0008083E0919F02F091A002808180688083F6
:1016D000E0919F02F091A00280818F7D8083109223
:1016E0007B0210927A0210927902109278020E9484
:1016F0001E0487EA92E0909377028093760288EA4C
:1017000092E0909375028093740210924E03809140
:101710005303823018F098E090934E038093510366
:1017200062E370E080E090E00E9466016091540303
:1017300089E493E00E94E30468EE73E080E090E0C7
:101740000E94660160E389E493E00E942C070BE4A9
:1017500016E4C8010197F1F760E389E493E00E9481
:101760002C07C8010197F1F760E389E493E00E9438
:101770002C0783E592E00197F1F760E289E493E0BA
:101780000E942C0760914E03606240E089E493E080
:101790000E94450784E080934F0340E06CE089E4B9
:1017A00093E00E94450740E061E089E493E00E94F5
:1017B00045070BE31FE1C8010197F1F782E0809331
:1017C000500340E066E089E493E00E94450740E072
:1017D00062E089E493E00E944507C8010197F1F7B0
:1017E00088E08093540360E089E493E00E94E3047E
:1017F00062E080913B030E9410012FB7F894809122
:10180000890290918A02A0918B02B0918C022FBF25
:10181000805D9740A109B10980933F0390934003F5
:10182000A0934103B093420387E38093480361E0B0
:101830008DE00E94100161E087E00E94100161E0EC
:101840008CE00E94100162E089E00E94100162E0D9
:101850008AE00E94100162E088E00E94100100E02E
:1018600010E00E949801882341F080913C038C3065
:1018700009F463C048F48B3001F1C12CD12C20EC69
:10188000E22E2FE7F22E43C085518230B0F7B090A0
:1018900038036B2D70E0762F662766277F7780915F
:1018A0003903682B90E080E00E948B0E2DEC3CEC1D
:1018B0004CEC5DE30E94EC0E5CC06091380370E07C
:1018C00090E080E00E948B0E4B015C01F0903903A8
:1018D000F7FE0AC0AC019B0160E070E080E89FEB7E
:1018E0000E94E10F4B015C016F2D6F7070E090E082
:1018F00080E00E948D0E2DEC3CEC4CEC5DE30E94F0
:10190000EC0EA50194010E94E20F6B017C010E9484
:101910009801882309F465C080913C038B3030F036
:101920008D3080F18551823008F493C1812C912C47
:1019300090ECA92E9FE7B92E43C0B09038036B2DD1
:1019400070E090E080E00E948B0E6B017C01609162
:1019500039036F7070E090E080E00E948D0E2DECF6
:101960003CEC4CEC5DE30E94EC0EA70196010E945A
:10197000E20F6B017C01B7FECACFF7FAF094F7F8DB
:10198000F094C5CF6091370370E090E080E00E9452
:101990008D0E2DEC3CEC4CEC5DE30E94EC0E4B010B
:1019A0005C016091360370E090E080E00E948D0E53
:1019B0009B01AC01C501B4010E94E20F4B015C0127
:1019C000A7019601C701B6010E94F410811109C058
:1019D000A5019401C501B4010E94F410882309F403
:1019E0004AC185E491E00E94CD0582E491E00E9425
:1019F000CD058DE892E00E944703892B09F417C1B9
:101A0000CE014F960E94F4078DE892E00E944703B2
:101A1000F12CE12C892B09F4E2C0CE0149960E94F9
:101A2000F4076DE571E0CE0101960E94E307BE0167
:101A30006F5F7F4FCE0149960E9475074C01CE0122
:101A400001960E946D076CE671E0CE0101960E943E
:101A5000E307BE016F5F7F4FCE0149960E94750775
:101A60005C01CE0101960E946D076CE771E0CE012A
:101A700001960E94E307BE016F5F7F4FCE0149963A
:101A80000E9475076C01CE0101960E946D076EE8F9
:101A900071E0CE0101960E94E307BE016F5F7F4FA8
:101AA000CE0149960E9475077C01CE0101960E94E5
:101AB0006D079501225F3F4FA401425F5F4FBE015A
:101AC000675E7F4FCE0143960E942E089601205FED
:101AD0003F4FA501415F5F4FBE01675E7F4FCE0163
:101AE0000D960E942E0897012A5F3F4FA6014F5E78
:101AF0005F4FBE01675E7F4FCE0107960E942E08A2
:101B00002D8D3E8DA701495F5F4FBE01675E7F4F00
:101B1000CE0101960E942E08CE0143960E946207D4
:101B20002B01CE010D960E9462074B01CE01079654
:101B30000E9462076B01CE0101960E9462075092DB
:101B40007D0240927C0290927F0280927E02D0922F
:101B50008102C0928002709383026093820286E9C0
:101B600091E00E94CD0580917C0290917D020E94BF
:101B7000FA0680EA91E00E94CD0580917E02909164
:101B80007F020E94FA068BEA91E00E94CD058091C7
:101B90008002909181020E94FA0688EB91E00E94F7
:101BA000CD0580918202909183020E94FA06CE01B7
:101BB00001960E946D07CE0107960E946D07CE0127
:101BC0000D960E946D07CE0143960E946D07CE01CF
:101BD00049960E946D078CE7E82E82E0F82E86E990
:101BE00091E00E94CD05F701808191810E94FA0663
:101BF00080EA91E00E94CD05F701828193810E94E5
:101C0000FA068BEA91E00E94CD05F7018481958167
:101C10000E94FA0688EB91E00E94CD05F7018681CB
:101C200097810E94FA06CE014F960E946D0768E8E0
:101C300073E180E090E00E9466010115110509F44E
:101C400010CE0E945303882309F409CE0E9400009D
:101C500006CE609136037091370376276727762783
:101C600090E080E00E948B0E2DEC3CEC4CEC5DE3B0
:101C70000E94EC0EA3CE42E0C701B6010E941E06F0
:101C800082E491E00E94CD0542E0C501B4010E94CA
:101C90001E06ABCE1F93FC0199278827BC01E89450
:101CA00011911032E9F3193010F01E30C8F31B32D5
:101CB00051F01D3249F4689406C00E94710E610F04
:101CC000711D811D911D119110531A30B0F33EF416
:101CD00090958095709561957F4F8F4F9F4F1F9185
:101CE0000895592F482F372F262F660F771F881FEB
:101CF000991F660F771F881F991F620F731F841F1C
:101D0000951F660F771F881F991F08950E94C80EA0
:101D100008F481E00895E89409C097FB3EF490959B
:101D20008095709561957F4F8F4F9F4F9923A9F0B4
:101D3000F92F96E9BB279395F69587957795679543
:101D4000B795F111F8CFFAF4BB0F11F460FF1BC087
:101D50006F5F7F4F8F4F9F4F16C0882311F096E91A
:101D600011C0772321F09EE8872F762F05C06623C8
:101D700071F096E8862F70E060E02AF09A95660F81
:101D8000771F881FDAF7880F9695879597F908953A
:101D9000990F0008550FAA0BE0E8FEEF161617067C
:101DA000E807F907C0F012161306E407F50798F0E4
:101DB000621B730B840B950B39F40A2661F0232BFD
:101DC000242B252B21F408950A2609F4A140A69579
:101DD0008FEF811D811D08950E94FF0E0C94700FDE
:101DE0000E94620F38F00E94690F20F0952311F0D5
:101DF0000C94590F0C945F0F11240C94A40F0E94A3
:101E0000810F70F3959FC1F3950F50E0551F629FAE
:101E1000F001729FBB27F00DB11D639FAA27F00D43
:101E2000B11DAA1F649F6627B00DA11D661F829F6A
:101E30002227B00DA11D621F739FB00DA11D621F4F
:101E4000839FA00D611D221F749F3327A00D611D6C
:101E5000231F849F600D211D822F762F6A2F11244E
:101E60009F5750409AF0F1F088234AF0EE0FFF1F81
:101E7000BB1F661F771F881F91505040A9F79E3FD8
:101E8000510580F00C94590F0C94A40F5F3FE4F3BC
:101E9000983ED4F3869577956795B795F795E7952E
:101EA0009F5FC1F7FE2B880F911D9695879597F937
:101EB000089597F99F6780E870E060E008959FEFCC
:101EC00080EC089500240A941616170618060906D1
:101ED000089500240A9412161306140605060895A0
:101EE000092E0394000C11F4882352F0BB0F40F428
:101EF000BF2B11F460FF04C06F5F7F4F8F4F9F4F68
:101F0000089557FD9058440F551F59F05F3F71F0E9
:101F10004795880F97FB991F61F09F3F79F0879550
:101F20000895121613061406551FF2CF4695F1DFD9
:101F300008C0161617061806991FF1CF8695710569
:101F4000610508940895E894BB2766277727CB019D
:101F500097F908952F923F924F925F926F927F92DE
:101F60008F929F92AF92BF92CF92DF92EF92FF92A9
:101F70000F931F93CF93DF93CDB7DEB7CA1BDB0B55
:101F80000FB6F894DEBF0FBECDBF09942A883988FA
:101F900048885F846E847D848C849B84AA84B98401
:101FA000C884DF80EE80FD800C811B81AA81B9810D
:101FB000CE0FD11D0FB6F894DEBF0FBECDBFED0121
:101FC00008955058BB27AA270E94F90F0C94700F50
:101FD0000E94620F38F00E94690F20F039F49F3F91
:101FE00019F426F40C945F0F0EF4E095E7FB0C94C3
:101FF000590FE92F0E94810F58F3BA176207730730
:102000008407950720F079F4A6F50C94A30F0EF43D
:10201000E0950B2EBA2FA02D0B01B90190010C01F8
:10202000CA01A0011124FF27591B99F0593F50F410
:10203000503E68F11A16F040A22F232F342F442768
:10204000585FF3CF469537952795A795F040539560
:10205000C9F77EF41F16BA0B620B730B840BBAF030
:102060009150A1F0FF0FBB1F661F771F881FC2F79B
:102070000EC0BA0F621F731F841F48F487957795AF
:102080006795B795F7959E3F08F0B0CF9395880F69
:1020900008F09927EE0F9795879508950E94621092
:1020A0000C94700F0E94690F58F00E94620F40F06C
:1020B00029F45F3F29F00C94590F51110C94A40F8F
:1020C0000C945F0F0E94810F68F39923B1F355239D
:1020D00091F3951B550BBB27AA276217730784073B
:1020E00038F09F5F5F4F220F331F441FAA1FA9F3D1
:1020F00035D00E2E3AF0E0E832D091505040E695BF
:10210000001CCAF72BD0FE2F29D0660F771F881F1F
:10211000BB1F261737074807AB07B0E809F0BB0B12
:10212000802DBF01FF2793585F4F3AF09E3F510526
:1021300078F00C94590F0C94A40F5F3FE4F3983E91
:10214000D4F3869577956795B795F7959F5FC9F70F
:10215000880F911D9695879597F90895E1E0660F90
:10216000771F881FBB1F621773078407BA0720F009
:10217000621B730B840BBA0BEE1F88F7E095089572
:102180000E94890F88F09F5798F0B92F9927B7516F
:10219000B0F0E1F0660F771F881F991F1AF0BA950B
:1021A000C9F714C0B13091F00E94A30FB1E00895B7
:1021B0000C94A30F672F782F8827B85F39F0B93FA9
:1021C000CCF3869577956795B395D9F73EF49095BE
:1021D0008095709561957F4F8F4F9F4F08950E9416
:1021E000C80E08F48FEF08950E94C80E880B990B53
:1021F0000895A1E21A2EAA1BBB1BFD010DC0AA1F48
:10220000BB1FEE1FFF1FA217B307E407F50720F05F
:10221000A21BB30BE40BF50B661F771F881F991FDA
:102220001A9469F760957095809590959B01AC0123
:10223000BD01CF010895EE0FFF1F0590F491E02D31
:1022400009940F931F93CF93DF938230910510F47D
:1022500082E090E0E0915703F091580330E020E0F5
:10226000B0E0A0E0309799F42115310509F44AC097
:10227000281B390B24303105D8F58A819B816115E3
:10228000710589F1FB0193838283FE0111C04081B6
:1022900051810281138148175907E0F04817590707
:1022A00099F4109761F012960C93129713961C9361
:1022B0003296CF01DF91CF911F910F910895009336
:1022C000570310935803F4CF2115310551F04217ED
:1022D000530738F0A901DB019A01BD01DF01F801C4
:1022E000C1CFEF01F9CF9093580380935703CDCF1F
:1022F000FE01E20FF31F819391932250310939833C
:102300002883D7CF2091550330915603232B41F4D6
:10231000209102013091030130935603209355031D
:1023200020910001309101012115310541F42DB7B3
:102330003EB74091040150910501241B350BE091FB
:102340005503F0915603E217F307A0F42E1B3F0B41
:102350002817390778F0AC014E5F5F4F2417350717
:1023600048F04E0F5F1F50935603409355038193DF
:1023700091939FCFF0E0E0E09CCFCF93DF93009765
:10238000E9F0FC01329713821282A0915703B091B9
:102390005803ED0130E020E01097A1F42081318155
:1023A000820F931F20915503309156032817390748
:1023B00009F061C0F0935603E0935503DF91CF918C
:1023C0000895EA01CE17DF07E8F54A815B819E0197
:1023D00041155105B1F7E901FB83EA834991599110
:1023E000C40FD51FEC17FD0761F48081918102961F
:1023F000840F951FE90199838883828193819B8350
:102400008A83F0E0E0E012968D919C9113970097FB
:10241000B9F52D913C911197CD010296820F931F32
:1024200020915503309156032817390739F6309714
:1024300051F51092580310925703B0935603A0938E
:102440005503BCCFD383C28340815181840F951F34
:10245000C817D90761F44E5F5F4F88819981480F93
:10246000591F518340838A819B81938382832115E5
:10247000310509F0B0CFF0935803E09357039ECF96
:10248000FD01DC01C0CF13821282D7CFB0E0A0E003
:10249000ECE4F2E10C94AC0F8C01009751F4CB0109
:1024A0000E9421118C01C801CDB7DEB7E0E10C9488
:1024B000C80FFC01E60FF71F9C0122503109E217FB
:1024C000F30708F49DC0D901CD91DC911197C6178F
:1024D000D70798F0C530D10530F3CE0104978617A1
:1024E000970708F3C61BD70B2297C193D1936D931F
:1024F0007C93CF010E94BD11D6CF5B01AC1ABD0AFF
:102500004C018C0E9D1EA0915703B0915803512C85
:10251000412CF12CE12C109731F5809155039091CD
:1025200056038815990509F05CC04616570608F051
:1025300058C08091000190910101009741F48DB73E
:102540009EB74091040150910501841B950BE8173B
:10255000F90708F055C0F0935603E0935503F901CD
:1025600071836083A0CF8D919C91119712966C908E
:10257000129713967C901397A815B90559F56C011D
:1025800042E0C40ED11CCA14DB0420F1AC014A198C
:102590005B09DA011296159780F06282738251838B
:1025A0004083D9016D937C93E114F10471F0D7015C
:1025B0001396FC93EE93129776CF22968C0F9D1F65
:1025C000F90191838083F301EFCFF0935803E093F7
:1025D000570369CF4816590608F42C017D01D30131
:1025E0009ACFCB010E9421117C01009749F0AE01E6
:1025F000B8010E940313C8010E94BD11870153CF87
:1026000010E000E050CFFB01DC0102C001900D9210
:1026100041505040D8F70895FB01DC0101900D9224
:102620000020E1F70895FB0151915523A9F0BF0166
:10263000DC014D9145174111E1F759F4CD010190AD
:10264000002049F04D9140154111C9F3FB014111A2
:0E265000EFCF81E090E001970895F894FFCF5E
:10265E00000059038000000000008903A902D60281
:10266E00D6034703E502390300000000B4048704D3
:10267E00CA055D0480046D045E04000000005C0762
:10268E00A902CA05F6036E616E00696E66006F766A
:10269E0066000D0A004661696C656420746F2072D5
:1026AE006561642066726F6D2044485400646179E0
:1026BE0054696D65546F486174636800686F757214
:1026CE0054696D65546F4861746368006D696E7509
:1026DE00746554696D65546F4861746368007072F7
:1026EE0053746174650064617954696D653A2000B4
:1026FE00686F757254696D653A20006D696E7574F8
:10270E006554696D653A2000707253746174653A50
:02271E00200099
:00000001FF
