:100000000C9480000C94A8000C94A8000C94A800F8
:100010000C94A8000C94A8000C94A8000C94220640
:100020000C94A8000C94A8000C94A8000C94A800B0
:100030000C94A8000C94A8000C94A8000C94A800A0
:100040000C94D8050C94A8000C94A4060C947E067D
:100050000C94A8000C94A8000C94A8000C94A80080
:100060000C94A8000C94A8004E414E494E49545996
:10007000494E46CDCCCC3D0AD7233C17B7D1387773
:10008000CC2B329595E6241FB14F0A000020410089
:1000900000C84200401C4620BCBE4CCA1B0E5AAED3
:1000A000C59D740200000000240027002A00000003
:1000B0000000250028002B000000000800020100BD
:1000C0000003040700000000000000000000000022
:1000D000230026002900040404040404040402028A
:1000E00002020202030303030303010204081020B7
:1000F0004080010204081020010204081020D606E6
:1001000011241FBECFEFD8E0DEBFCDBF22E0A0E8B4
:10011000B1E001C01D92A035B207E1F711E0A0E007
:10012000B1E0E4EDF1E202C005900D92A038B10714
:10013000D9F710E0C0E8D0E004C02197FE010E948A
:10014000D90ECF37D107C9F70E9423070C94E810C6
:100150000C940000CF92DF92EF92FF92CF93DF9347
:10016000B0913E02A0E08111AB2F80913F0290E060
:10017000880F991FAC0144535F4FC0904402D09048
:100180004502E0904602F090470230E020E0FA019C
:10019000C591D491E881B90190E080E0EB23EA13A6
:1001A0000AC02F5F3F4F6C157D058E059F0578F3C4
:1001B0006FEF7FEFCB01DF91CF91FF90EF90DF905A
:1001C000CF90089590E0FC01E854FF4F2491FC018A
:1001D000E651FF4F3491FC01EA52FF4FE491EE23C8
:1001E000C9F0222339F0233001F1A8F4213019F1AC
:1001F000223029F1F0E0EE0FFF1FE255FF4FA591ED
:10020000B4918FB7F894EC91611126C030953E23DC
:100210003C938FBF08952730A9F02830C9F02430CF
:1002200049F7809180008F7D03C0809180008F7797
:1002300080938000DFCF84B58F7784BDDBCF84B51A
:100240008F7DFBCF8091B0008F778093B000D2CFAD
:100250008091B0008F7DF9CF3E2BDACFCF93DF9323
:1002600090E0FC01E651FF4F24918A529F4FFC0120
:1002700084918823D1F090E0880F991FFC01EC5500
:10028000FF4FA591B491FC01E255FF4FC591D49168
:10029000623071F49FB7F8943C91822F809583234C
:1002A0008C93E8812E2B28839FBFDF91CF910895F7
:1002B0008FB7F894EC912E2B2C938FBFF6CF3FB7CE
:1002C000F8948091920190919301A0919401B09142
:1002D000950126B5A89B05C02F3F19F00196A11DD9
:1002E000B11D3FBFBA2FA92F982F8827BC01CD0180
:1002F000620F711D811D911D42E0660F771F881FDF
:10030000991F4A95D1F708958F929F92AF92BF920D
:10031000CF92DF92EF92FF924B015C010E945F014E
:100320006B017C010E945F016C197D098E099F0998
:10033000683E734081059105A8F321E0821A910877
:10034000A108B10888EEC80E83E0D81EE11CF11C9C
:1003500081149104A104B10429F7FF90EF90DF907C
:10036000CF90BF90AF909F908F900895CF92DF92E3
:10037000EF92FF920F931F93CF93DF93CDB7DEB72A
:10038000C054D1400FB6F894DEBF0FBECDBF2FB71B
:10039000F8948091960190919701A0919801B09165
:1003A00099012FBF40914002509141026091420259
:1003B000709143028C019D01041B150B260B370B1A
:1003C000B901A801403D57406105710590F4809145
:1003D0004802C05CDE4F0FB6F894DEBF0FBECDBF43
:1003E000DF91CF911F910F91FF90EF90DF90CF9011
:1003F00008958093400290934102A0934202B093EB
:10040000430210923B0210923A021092390210926B
:1004100038021092370262E080913C020E942E0165
:1004200061E070E080E090E00E94840161E08091F2
:100430003C020E942E0160E080913C020E94E2009A
:1004400080913D028551823020F58BE291E1019748
:10045000F1F762E080913C020E942E0180914902F6
:1004600090E08230910538F0880F991F880F991F0E
:1004700005970197F1F7F89480E00E94AA006F3F7A
:100480007F4F8F4F9F4F61F410924802789480E025
:10049000A0CF64E170E080E090E00E948401D9CFB9
:1004A00081E00E94AA006F3F7F4F8F4F9F4F61F303
:1004B0008E010F5F1F4F6E018FEBC81A8EEFD80AA7
:1004C000780180E00E94AA00F70160837183828333
:1004D000938381E00E94AA00F70164837583868379
:1004E0009783F8E0EF0EF11CEC14FD0451F77894BB
:1004F00030E020E0F801C080D180E280F3804481C8
:10050000558166817781FFEFCF16DF06EF06FF0684
:1005100031F04F3F8FEF58076807780719F41092B2
:100520004802B5CFF90183E0F595E7958A95E1F7A3
:10053000E95CFD4F8081880FC416D506E606F706F4
:1005400010F180832F5F3F4F085F1F4F2832310526
:1005500089F640913B022091370280913802280FA2
:100560003327331F80913902280F311D80913A02C1
:10057000820F932F911D99274817190681F681E064
:100580008093480226CF8160DCCF909100018913CF
:100590000BC0E3EAF0E0E4919FEF90930001E130BB
:1005A00049F028F0E23061F060E00C94E200109233
:1005B0006E00FACF90916F009D7F90936F00F4CF03
:1005C000909170009D7F9093700091E09093B000A7
:1005D0009091B100987F94609093B1001092B30015
:1005E000E3CFAF92BF92CF92DF92EF92FF920F9341
:1005F0001F93CF93DF936C017B018B01040F151FB9
:10060000EB015E01AE18BF08C017D10759F0699120
:10061000D601ED91FC910190F081E02DC601099584
:10062000892B79F7C501DF91CF911F910F91FF9031
:10063000EF90DF90CF90BF90AF900895FC01538D65
:10064000448D252F30E0842F90E0821B930B5417AC
:1006500010F0CF96089501970895FC01918D828D39
:10066000981761F0A28DAE0FBF2FB11D5D968C91D2
:10067000928D9F5F9F73928F90E008958FEF9FEF11
:1006800008952FB7F8948091960190919701A091C9
:100690009801B09199012FBF8093A2019093A3017B
:1006A000A093A401B093A5018AE991E00E942D03D3
:1006B00097FF26C02FB7F8948091960190919701EB
:1006C000A0919801B09199012FBF4091A201509142
:1006D000A3016091A4017091A501841B950BA60B49
:1006E000B70B40919E0150919F016091A0017091C4
:1006F000A10184179507A607B707B0F28FEF9FEF08
:100700000895FC01918D828D981731F0828DE80F4C
:10071000F11D858D90E008958FEF9FEF0895FC0106
:10072000918D228D892F90E0805C9F4F821B9109D3
:100730008F73992708958AE991E00E948F0321E041
:10074000892B09F420E0822F089580E090E0892B26
:1007500029F00E949B0381110C9400000895FC0174
:10076000A48DA80FB92FB11DA35ABF4F2C91848D12
:1007700090E001968F739927848FA689B7892C936F
:10078000A089B1898C91837080648C93938D848DC2
:10079000981306C00288F389E02D80818F7D8083C5
:1007A0000895EF92FF920F931F93CF93DF93EC0185
:1007B00081E0888F9B8D8C8D98131AC0E889F98908
:1007C000808185FF15C09FB7F894EE89FF8960830B
:1007D000E889F98980818370806480839FBF81E08C
:1007E00090E0DF91CF911F910F91FF90EF900895CE
:1007F000F62E0B8D10E00F5F1F4F0F731127E02EA9
:100800008C8D8E110CC00FB607FCFACFE889F989E0
:10081000808185FFF5CFCE010E94AF03F1CFEB8D34
:10082000EC0FFD2FF11DE35AFF4FF0829FB7F894B4
:100830000B8FEA89FB8980818062CFCFCF93DF93D2
:10084000EC01888D8823B9F0AA89BB89E889F989E8
:100850008C9185FD03C0808186FD0DC00FB607FC1D
:10086000F7CF8C9185FFF2CF808185FFEDCFCE0150
:100870000E94AF03E9CFDF91CF910895FC01019071
:100880000020E9F73197AF01481B590BBC018AE9F9
:1008900091E00C94F1028F929F92AF92BF920F93CE
:1008A0001F93CF93DF93CDB7DEB7A1970FB6F89420
:1008B000DEBF0FBECDBF19A2423008F44AE08E0160
:1008C0000F5D1F4F842E912CB12CA12CA5019401FA
:1008D0000E94B70EE62FB901CA01EA30F4F4E05DD8
:1008E000D801EE938D01232B242B252B79F790E053
:1008F00080E0109719F0CD010E943E04A1960FB63A
:10090000F894DEBF0FBECDBFDF91CF911F910F9145
:10091000BF90AF909F908F900895E95CE1CF4F9288
:100920005F926F927F928F929F92AF92BF92CF927F
:10093000DF92EF92FF920F931F93CF936B017C0195
:10094000742EAC019B010E94B20E882399F089E1BC
:1009500091E0CF911F910F91FF90EF90DF90CF909A
:10096000BF90AF909F908F907F906F905F904F90CF
:100970000C943E0446015701E894B7F82FEF3FEF7F
:100980004FE75FE7C501B4010E94B20E81110DC0AF
:100990002FEF3FEF4FE75FE7C501B4010E94270C3F
:1009A00018161CF48DE191E0D4CF2FEF3FEF4FE705
:1009B0005FE4C701B6010E94AD0E18161CF481E277
:1009C00091E0C7CF2FEF3FEF4FE75FECC701B601D4
:1009D0000E94270C87FDF3CF20E030E0A901C7017A
:1009E000B6010E94270C10E000E087FF0AC06DE20C
:1009F0008AE991E00E94D1038C01F7FAF094F7F8AC
:100A0000F094C0E060E070E080E09FE37C1641F08D
:100A100020E030E040E251E40E940C0ECF5FF6CFC0
:100A2000A70196010E94A00D2B013C010E947E0EA1
:100A30004B015C014AE00E944B047C01E00EF11E78
:100A4000CC23C1F1C501B4010E942C0C9B01AC0167
:100A5000C301B2010E949F0D4B015C016EE28AE965
:100A600091E00E94D103E80EF91EC15018F120E078
:100A700030E040E251E4C501B4010E948D0C2B012D
:100A80003C010E947E0E4B01B12CA12C4AE0C50115
:100A9000B4010E944B04E80EF91EC501B4010E9486
:100AA0002C0C9B01AC01C301B2010E949F0D4B01B4
:100AB0005C01DBCFC701CF911F910F91FF90EF90A9
:100AC000DF90CF90BF90AF909F908F907F906F906E
:100AD0005F904F9008950F931F93CF93DF93EC0196
:100AE00088819981009759F02A813B812617370721
:100AF00030F081E0DF91CF911F910F9108958B012C
:100B00006F5F7F4F0E940410009759F0998388838C
:100B10001B830A832C813D81232B59F7FC01108212
:100B2000E8CF80E0E7CFCF93DF93EC018881998114
:100B3000009711F00E947B0F198218821D821C827F
:100B40001B821A82DF91CF910895EF92FF920F934B
:100B50001F93CF93DF938C017B01EB010990002061
:100B6000E9F72197C61BD70BBE010E946B058111C7
:100B700009C0C801DF91CF911F910F91FF90EF90B5
:100B80000C949305F801D583C483B70180819181CA
:100B9000DF91CF911F910F91FF90EF900C94D310A4
:100BA000FC0180819181009711F00C947B0F0895D6
:100BB0001F920F920FB60F9211242F933F938F9392
:100BC0009F93AF93BF938091960190919701A091CD
:100BD0009801B09199013091910123E0230F2D37B5
:100BE00058F50196A11DB11D2093910180939601A6
:100BF00090939701A0939801B093990180919201ED
:100C000090919301A0919401B09195010196A11D3D
:100C1000B11D8093920190939301A0939401B0939E
:100C20009501BF91AF919F918F913F912F910F901F
:100C30000FBE0F901F90189526E8230F0296A11D56
:100C4000B11DD2CF1F920F920FB60F9211242F9386
:100C50003F934F935F936F937F938F939F93AF9344
:100C6000BF93EF93FF938091850190918601A091AE
:100C70008701B0918801892B8A2B8B2BD1F1909120
:100C80008001E0918101F091820180818927808338
:100C90008091850190918601A0918701B091880192
:100CA000181619061A061B069CF48091850190916E
:100CB0008601A0918701B09188010197A109B1092E
:100CC0008093850190938601A0938701B09388015A
:100CD000FF91EF91BF91AF919F918F917F916F9114
:100CE0005F914F913F912F910F900FBE0F901F90EA
:100CF0001895809100010E94C502EACF1F920F92C1
:100D00000FB60F9211242F933F934F935F936F93DE
:100D10007F938F939F93AF93BF93EF93FF938AE952
:100D200091E00E94AF03FF91EF91BF91AF919F912E
:100D30008F917F916F915F914F913F912F910F9084
:100D40000FBE0F901F9018951F920F920FB60F9223
:100D500011242F938F939F93EF93FF93E091AA0118
:100D6000F091AB018081E091B001F091B10182FD81
:100D70001BC090818091B3018F5F8F732091B4016C
:100D8000821741F0E091B301F0E0E656FE4F958FF7
:100D90008093B301FF91EF919F918F912F910F90CD
:100DA0000FBE0F901F9018958081F4CFEAE9F1E013
:100DB0001382128288EE93E0A0E0B0E084839583F2
:100DC000A683B7838BE091E09183808385EC90E0EC
:100DD0009587848784EC90E09787868780EC90E005
:100DE000918B808B81EC90E0938B828B82EC90E0F6
:100DF000958B848B86EC90E0978B868B118E128E70
:100E0000138E148EA7E3B2E088E015968C931597A5
:100E10008BE016968C931697E2EFF0E0E49117962C
:100E2000EC931797EEEDF0E0E4911896EC93189799
:100E300040E85EE360E070E01D964D935D936D9336
:100E40007C9350970895CF93DF93CDB7DEB72D975E
:100E50000FB6F894DEBF0FBECDBF789484B5826024
:100E600084BD84B5816084BD85B5826085BD85B54E
:100E7000816085BD80916E00816080936E001092CC
:100E80008100809181008260809381008091810047
:100E900081608093810080918000816080938000D8
:100EA0008091B10084608093B1008091B000816036
:100EB0008093B00080917A00846080937A00809162
:100EC0007A00826080937A0080917A0081608093BA
:100ED0007A0080917A00806880937A001092C10035
:100EE000E091AA01F091AB0182E08083E091A6013C
:100EF000F091A7011082E091A801F091A9018FEC77
:100F000080831092B201E091AE01F091AF0186E0D2
:100F10008083E091AC01F091AD018081806180839C
:100F2000E091AC01F091AD01808188608083E09117
:100F3000AC01F091AD01808180688083E091AC01CB
:100F4000F091AD0180818F7D808385E291E00E94E8
:100F50003E0481E391E00E943E0462E080913C0205
:100F60000E942E012FB7F8948091960190919701DD
:100F7000A0919801B09199012FBF805D9740A10980
:100F8000B1098093400290934102A0934202B09332
:100F9000430287E38093490261E08DE00E942E01C5
:100FA00061E08BE00E942E0122242A94322C210140
:100FB000A1EE6A2EA0E07A2E0E94B601882349F0A5
:100FC00080913D028B3028F08D3050F08551823079
:100FD000C8F1812C912CF0ECAF2EFFE7BF2E1EC084
:100FE0006091380270E090E080E00E942E0C2DECC1
:100FF0003CEC4CEC5DE30E948D0C6B017C0160913C
:10100000370270E090E080E00E942E0C9B01AC0162
:10101000C701B6010E94A00D4B015C010E94B60100
:10102000882309F4D4C080913D028C3009F4AAC011
:10103000D8F48B3091F1C12CD12C60ECE62E6FE707
:10104000F62E55C0609137027091380276276727D7
:10105000762790E080E00E942C0C2DEC3CEC4CECD0
:101060005DE30E948D0CD8CF8551823020F710911E
:101070003902612F70E0762F662766277F7780918F
:101080003A02682B90E080E00E942C0C2DEC3CECA6
:101090004CEC5DE30E948D0C91C06091390270E0D0
:1010A00090E080E00E942C0C6B017C0110913A02D0
:1010B00017FF0AC0AC019B0160E070E080E89FEB85
:1010C0000E949F0D6B017C011F70612F70E090E00A
:1010D00080E00E942E0C2DEC3CEC4CEC5DE30E9479
:1010E0008D0CA70196010E94A00D6B017C01A70148
:1010F0009601C701B6010E94B20E811109C0A50177
:101100009401C501B4010E94B20E882309F466C09F
:1011100084E391E00E943E0481E391E00E943E045A
:101120008AE991E00E948F03892B09F4F8C118869F
:101130001F821A8619861C861B8663E371E0CE0126
:1011400007960E94A5050E9441030B851C8597FD0B
:1011500054C089831A820F5F1F4FB801CE010796D2
:101160000E946B05882379F32F8138858B859C85B8
:10117000BE016F5F7F4F820F931F0E94D3101C87A9
:101180000B87E1CF10913902612F70E090E080E091
:101190000E942C0C6B017C0160913A026F7070E030
:1011A00090E080E00E942E0C2DEC3CEC4CEC5DE3DA
:1011B0000E948D0CA70196010E94A00D6B017C017D
:1011C00017FF95CFF7FAF094F7F8F09490CFC12C71
:1011D000D12C50ECE52E5FE7F52E9ACF42E0C70107
:1011E000B6010E948F0481E391E00E943E0442E038
:1011F000C501B4010E948F048FCF012B61F06CE414
:1012000071E08F8198850E94CA10892B21F461E0DA
:101210008DE00E94E2008B859C85892B61F066E55C
:1012200071E08F8198850E94CA10892B21F460E0BB
:101230008DE00E94E2001A8219821C821B821E82AB
:101240001D8261E671E0CE0101960E94A5054D81E7
:101250005E818B859C858417950770F08F819885BA
:10126000009751F069817A816115710529F00E941A
:10127000DA1011E0892B09F010E0CE0101960E94EE
:10128000D005112309F438C1AB84BC843EE0832E21
:10129000912C8EE0A816B10420F045014EE0A42E5A
:1012A000B12C1A8219821C821B821E821D8263E36A
:1012B00071E0CE0101960E94A5050B851C85A01644
:1012C000B10660F58016910608F48401EF81F88577
:1012D000E00FF11F90819D8710828F819885A80E65
:1012E000B91EA114B10479F0F50101900020E9F7CD
:1012F00031974F018A189B08B401CE0101960E94D4
:101300006B05811147C0CE0101960E9493058F8124
:101310009885080F191F8D85F801808389819A812E
:1013200020E030E0A901009721F00E94B20A9B0161
:10133000AC01C701B6010E94AD0E18160CF00AC12F
:10134000809100018B3071F5E3EAF0E0149117FD14
:10135000CBC061E08BE00E942E01112309F494C000
:10136000123009F0A5C08091B100887F856080931C
:10137000B10084EF8093B300209285013092860102
:101380004092870150928801809170008260809322
:101390007000AAC09E828D82B50189819A810E94C7
:1013A000D310B5CF8F3F09F09FC08BE08093000131
:1013B000E3EAF0E014911F3F09F496C0113021F1E7
:1013C00050F0123009F43EC017FD8EC061E08BE092
:1013D0000E942E01C5CF14BC15BC84B5826084BDAB
:1013E00085B5816085BDF3018491E82FF0E0EE0FB3
:1013F000FF1FE255FF4F85919491E5EFF0E0849156
:101400008093840110E0A5CF10928000109281009B
:10141000809181008860809381008091810081604B
:1014200080938100F3018491E82FF0E0EE0FFF1F1D
:10143000E255FF4F85919491E5EFF0E08491809320
:10144000830187CF1092B0001092B1008091B0005C
:1014500082608093B0008091B10081608093B10080
:10146000F3018491E82FF0E0EE0FFF1FE255FF4FEC
:10147000859194919093820180938101E5EFF0E052
:1014800084918093800165CF85B5887F846085BD18
:1014900089E787BD20928D0130928E0140928F01A5
:1014A0005092900180916E00826080936E001CC00B
:1014B000113009F047C080918100887F816080935E
:1014C00081008BE89AE790938900809388002092AE
:1014D000890130928A0140928B0150928C01809157
:1014E0006F00826080936F0061E08DE00E94E200F7
:1014F000CE0101960E94D0058B859C85892B59F0E1
:1015000060E771E08F8198850E94CA10892B19F4D9
:101510008BE00E94C502CE0107960E94D00568E8C4
:1015200073E180E090E00E948401E0E0F0E0EF2BC6
:1015300009F442CD0E949B03882309F439CD0E940F
:10154000000036CD123021F01111CECF8BE8A1CFA3
:101550008BE810CF60E08DE00E94E2008BE00E94FB
:10156000C502C6CF662777270C94B60AB0E0A0E084
:10157000ECEBFAE00C945F0D5C017B0161157105E9
:1015800019F0DB018D939C9385010F5F1F4FF501CF
:10159000D0818D2F90E00E94060C6C01892BB9F54B
:1015A000DD32B9F50F5F1F4FD5011196DC91C1E017
:1015B0005801F1E0AF1AB10843E050E060E770E095
:1015C000C5010E940F0C892B69F5680182E0C80EE5
:1015D000D11C45E050E06BE670E0C6010E940F0CA4
:1015E000892B21F4680197E0C90ED11CE114F104A4
:1015F00019F0D701CD92DC9260E070E080E89FEFB7
:10160000C111FFC060E070E080E89FE7FAC05801B8
:10161000BBCFDB3229F485010E5F1F4FF501D1816D
:10162000C0E0C6CF43E050E068E670E0C5010E942C
:101630000F0C892BE9F0F80110E000E020E030E029
:10164000A9015F01B0ED8B2E8D0E89E08815C8F1E0
:101650009C2E689491F88C2F8870C2FF16C081115F
:1016600002C00F5F1F4F3196D501DC91C92DE9CF24
:10167000E114F10429F00E5F1F4FF701118300837D
:1016800060E070E080EC9FE7BCC0882311F001505F
:101690001109A5E0B0E00E944E0D9B01AC01220FA4
:1016A000331F441F551F280D311D411D511D283961
:1016B00099E93907490799E15907A8F2C6609C2EB4
:1016C000D2CFAEEF8A1206C0C3FD3CC09C2E6894F8
:1016D00093F8C9CFDF7DD534A9F580818D3239F4F7
:1016E000C061DF011296818162E070E006C0DF0117
:1016F0008B32C1F3119661E070E080535D01A61A50
:10170000B70A8A30F8F4E0E8CE16ECE0DE065CF4C6
:10171000B601660F771F660F771FC60ED71ECC0C5B
:10172000DD1CC80ED11C5D01FFEFAF1ABF0A8C9102
:1017300080538A30A8F1C4FF03C0D194C194D1086A
:101740000C0D1D1DC1FF09C0E114F10431F081E051
:10175000A81AB108D701AD92BC92CA01B9010E9482
:101760002C0CC370C33009F490584B015C0120E08D
:1017700030E0A9010E94270C882309F440C0CFE97A
:10178000D0E017FF05C0119501951109C7E8D0E019
:101790006E01B8E1CB1AD10880E2E82EF12C0FC01F
:1017A000D501B1CFFE0125913591459154910E1986
:1017B0001F09C501B4010E948D0C4B015C01D501CC
:1017C000C4010E151F0574F72497F594E794CC1601
:1017D000DD06A9F78A2F880F8B2F881F8F3F49F0CE
:1017E00020E030E0A901C501B4010E94270C81115D
:1017F00006C082E290E090934B0280934A02C501BA
:10180000B401CDB7DEB7ECE00C947B0D91110C94D4
:10181000FA0C803219F089508550C8F70895FB0101
:10182000DC014150504088F08D9181341CF08B35A3
:101830000CF4805E659161341CF06B350CF4605ED5
:10184000861B611171F3990B0895881BFCCF0E94D0
:10185000690C08F481E00895E89409C097FB3EF410
:1018600090958095709561957F4F8F4F9F4F9923ED
:10187000A9F0F92F96E9BB279395F695879577956B
:101880006795B795F111F8CFFAF4BB0F11F460FF2B
:101890001BC06F5F7F4F8F4F9F4F16C0882311F083
:1018A00096E911C0772321F09EE8872F762F05C097
:1018B000662371F096E8862F70E060E02AF09A9532
:1018C000660F771F881FDAF7880F9695879597F927
:1018D0000895990F0008550FAA0BE0E8FEEF1616C1
:1018E0001706E807F907C0F012161306E407F50714
:1018F00098F0621B730B840B950B39F40A2661F088
:10190000232B242B252B21F408950A2609F4A1402A
:10191000A6958FEF811D811D08950E94A00C0C9447
:10192000140D0E94060D38F00E940D0D20F0952335
:1019300011F00C94FD0C0C94030D11240C94480D23
:101940000E94250D70F3959FC1F3950F50E0551F30
:10195000629FF001729FBB27F00DB11D639FAA2704
:10196000F00DB11DAA1F649F6627B00DA11D661F53
:10197000829F2227B00DA11D621F739FB00DA11D74
:10198000621F839FA00D611D221F749F3327A00D2E
:10199000611D231F849F600D211D822F762F6A2FCA
:1019A00011249F5750409AF0F1F088234AF0EE0F2F
:1019B000FF1FBB1F661F771F881F91505040A9F75C
:1019C0009E3F510580F00C94FD0C0C94480D5F3F38
:1019D000E4F3983ED4F3869577956795B795F79598
:1019E000E7959F5FC1F7FE2B880F911D9695879510
:1019F00097F9089599278827089597F99F6780E8B0
:101A000070E060E008959FEF80EC089500240A9450
:101A10001616170618060906089500240A941216C9
:101A20001306140605060895092E0394000C11F4FC
:101A3000882352F0BB0F40F4BF2B11F460FF04C0A9
:101A40006F5F7F4F8F4F9F4F089557FD9058440F02
:101A5000551F59F05F3F71F04795880F97FB991F0D
:101A600061F09F3F79F087950895121613061406CA
:101A7000551FF2CF4695F1DF08C016161706180657
:101A8000991FF1CF86957105610508940895E89432
:101A9000BB2766277727CB0197F908950E94900D01
:101AA000A59F900DB49F900DA49F800D911D1124B2
:101AB00008952F923F924F925F926F927F928F92F2
:101AC0009F92AF92BF92CF92DF92EF92FF920F93CD
:101AD0001F93CF93DF93CDB7DEB7CA1BDB0B0FB6D7
:101AE000F894DEBF0FBECDBF09942A883988488894
:101AF0005F846E847D848C849B84AA84B984C8842A
:101B0000DF80EE80FD800C811B81AA81B981CE0F20
:101B1000D11D0FB6F894DEBF0FBECDBFED01089505
:101B2000A29FB001B39FC001A39F700D811D11241E
:101B3000911DB29F700D811D1124911D0895505863
:101B4000BB27AA270E94B70D0C94140D0E94060D06
:101B500038F00E940D0D20F039F49F3F19F426F45F
:101B60000C94030D0EF4E095E7FB0C94FD0CE92FAB
:101B70000E94250D58F3BA1762077307840795076B
:101B800020F079F4A6F50C94470D0EF4E0950B2E99
:101B9000BA2FA02D0B01B90190010C01CA01A001BF
:101BA0001124FF27591B99F0593F50F4503E68F11A
:101BB0001A16F040A22F232F342F4427585FF3CF5B
:101BC000469537952795A795F0405395C9F77EF42C
:101BD0001F16BA0B620B730B840BBAF09150A1F075
:101BE000FF0FBB1F661F771F881FC2F70EC0BA0FFB
:101BF000621F731F841F48F4879577956795B79583
:101C0000F7959E3F08F0B0CF9395880F08F099277D
:101C1000EE0F9795879508950E94200E0C94140D51
:101C20000E940D0D58F00E94060D40F029F45F3F10
:101C300029F00C94FD0C51110C94480D0C94030DDB
:101C40000E94250D68F39923B1F3552391F3951B59
:101C5000550BBB27AA2762177307840738F09F5FCD
:101C60005F4F220F331F441FAA1FA9F335D00E2E3A
:101C70003AF0E0E832D091505040E695001CCAF7A7
:101C80002BD0FE2F29D0660F771F881FBB1F26176A
:101C900037074807AB07B0E809F0BB0B802DBF0141
:101CA000FF2793585F4F3AF09E3F510578F00C9410
:101CB000FD0C0C94480D5F3FE4F3983ED4F38695F9
:101CC00077956795B795F7959F5FC9F7880F911D31
:101CD0009695879597F90895E1E0660F771F881F1D
:101CE000BB1F621773078407BA0720F0621B730BD0
:101CF000840BBA0BEE1F88F7E09508950E942D0D16
:101D000088F09F5798F0B92F9927B751B0F0E1F0BC
:101D1000660F771F881F991F1AF0BA95C9F714C06C
:101D2000B13091F00E94470DB1E008950C94470D39
:101D3000672F782F8827B85F39F0B93FCCF38695A5
:101D400077956795B395D9F73EF490958095709502
:101D500061957F4F8F4F9F4F08950E94690C08F443
:101D60008FEF08950E94690C880B990B0895A1E2EA
:101D70001A2EAA1BBB1BFD010DC0AA1FBB1FEE1F05
:101D8000FF1FA217B307E407F50720F0A21BB30B50
:101D9000E40BF50B661F771F881F991F1A9469F7CC
:101DA00060957095809590959B01AC01BD01CF0128
:101DB0000895EE0FFF1F0590F491E02D09940F9305
:101DC0001F93CF93DF938230910510F482E090E06F
:101DD000E0914E02F0914F0230E020E0B0E0A0E050
:101DE000309799F42115310509F44AC0281B390BA5
:101DF00024303105D8F58A819B816115710589F1FF
:101E0000FB0193838283FE0111C0408151810281D5
:101E1000138148175907E0F04817590799F41097AC
:101E200061F012960C93129713961C933296CF0181
:101E3000DF91CF911F910F91089500934E0210935F
:101E40004F02F4CF2115310551F04217530738F0F6
:101E5000A901DB019A01BD01DF01F801C1CFEF014A
:101E6000F9CF90934F0280934E02CDCFFE01E20F47
:101E7000F31F819391932250310939832883D7CF5F
:101E800020914C0230914D02232B41F4209103010B
:101E90003091040130934D0220934C0220910101B6
:101EA000309102012115310541F42DB73EB7409123
:101EB000050150910601241B350BE0914C02F09175
:101EC0004D02E217F307A0F42E1B3F0B281739072A
:101ED00078F0AC014E5F5F4F2417350748F04E0F86
:101EE0005F1F50934D0240934C02819391939FCF7B
:101EF000F0E0E0E09CCFCF93DF930097E9F0FC01A6
:101F0000329713821282A0914E02B0914F02ED01DE
:101F100030E020E01097A1F420813181820F931FDF
:101F200020914C0230914D022817390709F061C009
:101F3000F0934D02E0934C02DF91CF910895EA01B6
:101F4000CE17DF07E8F54A815B819E0141155105F7
:101F5000B1F7E901FB83EA8349915991C40FD51F79
:101F6000EC17FD0761F4808191810296840F951F23
:101F7000E90199838883828193819B838A83F0E03E
:101F8000E0E012968D919C9113970097B9F52D91F1
:101F90003C911197CD010296820F931F20914C0224
:101FA00030914D022817390739F6309751F51092C4
:101FB0004F0210924E02B0934D02A0934C02BCCF40
:101FC000D383C28340815181840F951FC817D907DD
:101FD00061F44E5F5F4F88819981480F591F51838B
:101FE00040838A819B81938382832115310509F087
:101FF000B0CFF0934F02E0934E029ECFFD01DC0183
:10200000C0CF13821282D7CFB0E0A0E0EAE0F0E1C7
:102010000C945B0D8C01009751F4CB010E94DF0EF4
:102020008C01C801CDB7DEB7E0E10C94770DFC015F
:10203000E60FF71F9C0122503109E217F30708F45D
:102040009DC0D901CD91DC911197C617D70798F0A3
:10205000C530D10530F3CE0104978617970708F3F2
:10206000C61BD70B2297C193D1936D937C93CF015D
:102070000E947B0FD6CF5B01AC1ABD0A4C018C0EBF
:102080009D1EA0914E02B0914F02512C412CF12C7B
:10209000E12C109731F580914C0290914D028815FA
:1020A000990509F05CC04616570608F058C08091A3
:1020B000010190910201009741F48DB79EB74091C4
:1020C000050150910601841B950BE817F90708F0EC
:1020D00055C0F0934D02E0934C02F9017183608387
:1020E000A0CF8D919C91119712966C901297139698
:1020F0007C901397A815B90559F56C0142E0C40E00
:10210000D11CCA14DB0420F1AC014A195B09DA01C5
:102110001296159780F06282738251834083D901B1
:102120006D937C93E114F10471F0D7011396FC9345
:10213000EE93129776CF22968C0F9D1FF901918313
:102140008083F301EFCFF0934F02E0934E0269CF0B
:102150004816590608F42C017D01D3019ACFCB0112
:102160000E94DF0E7C01009749F0AE01B8010E9489
:10217000C110C8010E947B0F870153CF10E000E01F
:1021800050CFFB01DC0102C001900D924150504044
:10219000D8F70895FB01DC018D91019080190110A1
:1021A000D9F3990B0895FB01DC0101900D920020F9
:1021B000E1F70895FB01DC014150504030F08D9172
:1021C0000190801919F40020B9F7881B990B089524
:0421D000F894FFCFB1
:1021D400FF00005002800000000000D103F1021E45
:1021E400031E048F032D0381036E616E00696E6606
:1021F400006F76660044485431312074657374214D
:10220400000D0A004661696C656420746F20726574
:1022140061642066726F6D20444854005475726E78
:102224004F6E4C6564005475726E4F66664C6564FF
:102234000053657454656D706572617475726500E0
:102244005475726E4F6666537065616B65720000FB
:00000001FF
